S00F00004646545F636F6E762E733139F0
S20500000013E7
S20500000100F9
S20500000200F8
S20500000300F7
S20500000413E3
S20500000500F5
S20500000600F4
S20500000700F3
S20500000813DF
S20500000900F1
S20500000A00F0
S20500000B00EF
S20500000C13DB
S20500000D00ED
S20500000E00EC
S20500000F00EB
S20500001013D7
S20500001100E9
S20500001200E8
S20500001300E7
S20500001413D3
S20500001500E5
S20500001600E4
S20500001700E3
S20500001813CF
S20500001900E1
S20500001A00E0
S20500001B00DF
S20500001C13CB
S20500001D00DD
S20500001E00DC
S20500001F00DB
S20500002013C7
S20500002100D9
S20500002200D8
S20500002300D7
S20500002413C3
S20500002500D5
S20500002600D4
S20500002700D3
S20500002813BF
S20500002900D1
S20500002A00D0
S20500002B00CF
S20500002C13BB
S20500002D00CD
S20500002E00CC
S20500002F00CB
S20500003013B7
S20500003100C9
S20500003200C8
S20500003300C7
S20500003413B3
S20500003500C5
S20500003600C4
S20500003700C3
S20500003813AF
S20500003900C1
S20500003A00C0
S20500003B00BF
S20500003C13AB
S20500003D00BD
S20500003E00BC
S20500003F00BB
S20500004013A7
S20500004100B9
S20500004200B8
S20500004300B7
S20500004413A3
S20500004500B5
S20500004600B4
S20500004700B3
S205000048139F
S20500004900B1
S20500004A00B0
S20500004B00AF
S20500004C139B
S20500004D00AD
S20500004E00AC
S20500004F00AB
S2050000501397
S20500005100A9
S20500005200A8
S20500005300A7
S2050000541393
S20500005500A5
S20500005600A4
S20500005700A3
S205000058138F
S20500005900A1
S20500005A00A0
S20500005B009F
S20500005C138B
S20500005D009D
S20500005E009C
S20500005F009B
S2050000601387
S2050000610099
S2050000620098
S2050000630097
S2050000641383
S2050000650095
S2050000660094
S2050000670093
S205000068137F
S2050000690091
S20500006A0090
S20500006B008F
S20500006C137B
S20500006D008D
S20500006E008C
S20500006F008B
S2050000701377
S2050000710089
S2050000720088
S2050000730087
S2050000741373
S2050000750085
S2050000760084
S2050000770083
S205000078136F
S2050000790081
S20500007A0080
S20500007B007F
S20500007C136B
S20500007D007D
S20500007E007C
S20500007F007B
S2050000806F0B
S2050000810079
S2050000824038
S2050000830077
S20500008493E3
S2050000850075
S2050000860074
S2050000870073
S205000088135F
S20500008981F0
S20500008A0070
S20500008B006F
S20500008C93DB
S20500008D81EC
S20500008E006C
S20500008F006B
S2050000901357
S20500009182E7
S2050000920068
S2050000930067
S20500009493D3
S20500009582E3
S2050000960064
S2050000970063
S205000098134F
S20500009983DE
S20500009A0060
S20500009B005F
S20500009C93CB
S20500009D83DA
S20500009E005C
S20500009F005B
S2050000A01347
S2050000A184D5
S2050000A20058
S2050000A30057
S2050000A493C3
S2050000A584D1
S2050000A60054
S2050000A70053
S2050000A8133F
S2050000A985CC
S2050000AA0050
S2050000AB004F
S2050000AC93BB
S2050000AD85C8
S2050000AE004C
S2050000AF004B
S2050000B01337
S2050000B186C3
S2050000B20048
S2050000B30047
S2050000B493B3
S2050000B586BF
S2050000B60044
S2050000B70043
S2050000B8132F
S2050000B987BA
S2050000BA0040
S2050000BB003F
S2050000BC93AB
S2050000BD87B6
S2050000BE003C
S2050000BF003B
S2050000C01327
S2050000C188B1
S2050000C20038
S2050000C30037
S2050000C493A3
S2050000C588AD
S2050000C60034
S2050000C70033
S2050000C8131F
S2050000C989A8
S2050000CA0030
S2050000CB002F
S2050000CC939B
S2050000CD89A4
S2050000CE002C
S2050000CF002B
S2050000D01317
S2050000D18A9F
S2050000D20028
S2050000D30027
S2050000D49393
S2050000D58A9B
S2050000D60024
S2050000D70023
S2050000D8130F
S2050000D98B96
S2050000DA0020
S2050000DB001F
S2050000DC938B
S2050000DD8B92
S2050000DE001C
S2050000DF001B
S2050000E01307
S2050000E18C8D
S2050000E20018
S2050000E30017
S2050000E49383
S2050000E58C89
S2050000E60014
S2050000E70013
S2050000E813FF
S2050000E98D84
S2050000EA0010
S2050000EB000F
S2050000EC937B
S2050000ED8D80
S2050000EE000C
S2050000EF000B
S2050000F013F7
S2050000F18E7B
S2050000F20008
S2050000F30007
S2050000F49373
S2050000F58E77
S2050000F60004
S2050000F70003
S2050000F813EF
S2050000F98F72
S2050000FA0000
S2050000FB00FF
S2050000FC936B
S2050000FD8F6E
S2050000FE00FC
S2050000FF00FB
S20500010017E2
S2050001016197
S20500010210E7
S20500010300F6
S20500010413E2
S20500010501F3
S20500010601F2
S205000107DF13
S20500010817DA
S2050001091DD3
S20500010A10DF
S20500010B00EE
S20500010C13DA
S20500010D0DDF
S20500010ECD1E
S20500010F9555
S2050001109752
S2050001113DAB
S20500011210D7
S20500011300E6
S2050001149352
S2050001158D57
S205000116CD16
S205000117E5FD
S205000118637E
S2050001195888
S20500011ABD22
S20500011B01DD
S20500011C23BA
S20500011D20BC
S20500011E0DCE
S20500011F00DA
S20500012013C6
S2050001210DCB
S2050001224D8A
S20500012300D6
S205000124E3F2
S205000125DCF8
S205000126AD26
S205000127FFD3
S205000128EFE2
S2050001294090
S20500012A10BF
S20500012B2BA3
S20500012C13BA
S20500012D05C7
S20500012E00CB
S20500012F00CA
S2050001309336
S20500013105C3
S20500013200C7
S20500013300C6
S205000134EFD6
S2050001355074
S205000136C003
S205000137259D
S205000138EFD2
S20500013900C0
S20500013A00BF
S20500013B00BE
S20500013C6756
S20500013D803C
S20500013E00BB
S20500013F00BA
S2050001409326
S205000141D7E1
S2050001424572
S2050001434175
S20500014413A2
S20500014501B3
S20500014601B2
S205000147FFB3
S205000148931E
S205000149F7B9
S20500014AF7B8
S20500014B7F2F
S20500014C238A
S20500014D2488
S20500014E812A
S20500014F00AA
S2050001502386
S2050001512286
S2050001529116
S20500015300A6
S2050001542382
S2050001552084
S2050001562182
S20500015701A1
S205000158237E
S205000159267A
S20500015A118E
S20500015B009E
S20500015C138A
S20500015D8715
S20500015E1784
S20500015FC0DA
S2050001609306
S2050001610692
S2050001623067
S2050001630195
S2050001641382
S2050001658410
S205000166058E
S2050001670092
S20500016893FE
S205000169048C
S20500016A058A
S20500016B008E
S20500016C137A
S20500016D0983
S20500016E0685
S20500016F008A
S2050001706326
S205000171CCBC
S205000172E6A1
S2050001730482
S2050001746322
S2050001754A3A
S205000176077C
S2050001771072
S205000178B7CA
S2050001790779
S20500017A106F
S20500017B007E
S20500017C93EA
S20500017D87F5
S20500017EF784
S20500017FFF7B
S205000180B3C6
S205000181D7A1
S205000182E790
S2050001834036
S2050001843342
S205000185F77D
S205000186B7BC
S2050001870072
S205000188333E
S2050001896709
S20500018AA7C8
S20500018B006E
S20500018C630A
S20500018D1A52
S20500018E0764
S20500018F0664
S20500019093D6
S2050001910761
S2050001920463
S2050001930066
S205000194B7AE
S205000195065E
S2050001960063
S20500019780E2
S205000198233E
S2050001992040
S20500019A99C6
S20500019B005E
S20500019C332A
S20500019DF468
S20500019E86D5
S20500019F005A
S2050001A02336
S2050001A12236
S2050001A2F95E
S2050001A30056
S2050001A493C2
S2050001A50450
S2050001A60053
S2050001A70052
S2050001A883CE
S2050001A92030
S2050001AAC18E
S2050001AB004E
S2050001AC93BA
S2050001AD0547
S2050001AE0447
S2050001AF004A
S2050001B00346
S2050001B12424
S2050001B281C6
S2050001B30046
S2050001B40342
S2050001B5291B
S2050001B60142
S2050001B70042
S2050001B8132E
S2050001B985BB
S2050001BA043B
S2050001BB003E
S2050001BC83BA
S2050001BD2418
S2050001BE41FA
S2050001BF003A
S2050001C01326
S2050001C10137
S2050001C20136
S2050001C30135
S2050001C467CE
S2050001C580B4
S2050001C60033
S2050001C70032
S2050001C8939E
S2050001C9062A
S2050001CA30FF
S2050001CB032B
S2050001CC63CA
S2050001CDC26A
S2050001CEE645
S2050001CF0822
S2050001D01316
S2050001D10721
S2050001D2F037
S2050001D3FF27
S2050001D49392
S2050001D5879D
S2050001D6D74C
S2050001D7BE64
S2050001D8B36E
S2050001D957C9
S2050001DAF728
S2050001DB001E
S2050001DC33EA
S2050001DDF725
S2050001DEA774
S2050001DF001A
S2050001E0E336
S2050001E10810
S2050001E20710
S2050001E3FA1C
S2050001E49382
S2050001E5C74D
S2050001E6F71C
S2050001E7FF13
S2050001E8B35E
S2050001E9F719
S2050001EAA768
S2050001EB000E
S2050001EC13FA
S2050001ED8884
S2050001EE0704
S2050001EF000A
S2050001F013F6
S2050001F18682
S2050001F20700
S2050001F30006
S2050001F49372
S2050001F5887C
S2050001F605FE
S2050001F70002
S2050001F8936E
S2050001F9867A
S2050001FA05FA
S2050001FB00FE
S2050001FC6F8E
S2050001FD00FC
S2050001FE00FB
S2050001FF02F8
S2050002009365
S205000201C730
S205000202F7FF
S205000203FFF6
S20500020413E1
S20500020507EC
S20500020600F2
S20500020700F1
S205000208B33D
S205000209F7F8
S20500020AB737
S20500020B00ED
S20500020C13D9
S20500020D08E3
S20500020E07E3
S20500020F00E9
S20500021013D5
S20500021106E1
S20500021207DF
S20500021300E5
S2050002149351
S205000215885B
S20500021607DB
S20500021700E1
S205000218934D
S2050002198659
S20500021A07D7
S20500021B00DD
S20500021C23B9
S20500021D20BB
S20500021E09D1
S20500021F01D8
S20500022023B5
S20500022122B5
S20500022219BD
S20500022301D4
S205000224EFE5
S20500022530A3
S20500022610C2
S2050002276170
S20500022813BD
S205000229844B
S20500022A05C9
S20500022B00CD
S20500022C8349
S20500022D20AB
S20500022EC109
S20500022F00C9
S2050002309335
S20500023105C2
S20500023204C2
S20500023300C5
S20500023403C1
S205000235249F
S2050002368141
S20500023700C1
S205000238932D
S20500023904BB
S20500023A05B9
S20500023B00BD
S20500023C03B9
S20500023D2992
S20500023E01B9
S20500023F00B9
S20500024013A5
S2050002418532
S20500024204B2
S20500024300B5
S2050002448331
S205000245248F
S2050002464171
S20500024700B1
S205000248139D
S20500024901AE
S20500024A01AD
S20500024B01AC
S20500024C6745
S20500024D802B
S20500024E00AA
S20500024F00A9
S2050002502385
S2050002512087
S205000252A9FD
S20500025300A5
S2050002542381
S2050002552281
S205000256B9E9
S20500025700A1
S205000258EFB1
S205000259009F
S20500025A900E
S20500025B029B
S20500025C6339
S20500025D1E7D
S20500025E0595
S20500025F0495
S2050002601385
S2050002618611
S2050002620492
S2050002630095
S2050002641381
S205000265850E
S205000266048E
S2050002670091
S20500026893FD
S2050002690689
S20500026A048A
S20500026B008D
S20500026C93F9
S20500026D0586
S20500026E0486
S20500026F0089
S205000270EF99
S2050002712067
S2050002720086
S2050002732362
S20500027493F1
S205000275047F
S205000276057D
S2050002770081
S205000278136D
S20500027984FB
S20500027A0579
S20500027B007D
S20500027C2359
S20500027D205B
S20500027EA9D1
S20500027F0079
S2050002802355
S2050002812255
S205000282B9BD
S2050002830075
S2050002846F05
S205000285F083
S2050002865F13
S205000287F27F
S205000288B7B9
S2050002890768
S20500028A006E
S20500028B80ED
S20500028C83E9
S20500028D204B
S20500028EC1A9
S20500028F0069
S205000290B3B5
S205000291F770
S205000292B7AF
S2050002930065
S20500029493D1
S205000295055E
S205000296045E
S2050002970061
S205000298035D
S205000299243B
S20500029A81DD
S20500029B005D
S20500029C2339
S20500029D203B
S20500029E0654
S20500029F0059
S2050002A02335
S2050002A12235
S2050002A2F660
S2050002A30055
S2050002A40351
S2050002A5292A
S2050002A60151
S2050002A70051
S2050002A8133D
S2050002A985CA
S2050002AA044A
S2050002AB004D
S2050002AC83C9
S2050002AD2427
S2050002AE4109
S2050002AF0049
S2050002B01335
S2050002B10146
S2050002B20145
S2050002B30144
S2050002B467DD
S2050002B580C3
S2050002B60042
S2050002B70041
S2050002B8B789
S2050002B90738
S2050002BA003E
S2050002BB80BD
S2050002BC3309
S2050002BDF447
S2050002BE87B3
S2050002BF0039
S2050002C093A5
S2050002C10433
S2050002C20036
S2050002C30035
S2050002C46FC5
S2050002C5F043
S2050002C65FD3
S2050002C7EE43
S2050002C8131D
S2050002C9012E
S2050002CA012D
S2050002CBFE2F
S2050002CC2309
S2050002CD2CFF
S2050002CE81A9
S2050002CF0029
S2050002D037F1
S2050002D10423
S2050002D20026
S2050002D380A5
S2050002D49391
S2050002D5071C
S2050002D6F42E
S2050002D7FF22
S2050002D8B769
S2050002D926F9
S2050002DAE935
S2050002DB3FDE
S2050002DC23F9
S2050002DD2EED
S2050002DE1109
S2050002DF0019
S2050002E0B365
S2050002E1F720
S2050002E2B75F
S2050002E30015
S2050002E49381
S2050002E5868D
S2050002E6B65C
S2050002E71FF2
S2050002E863AD
S2050002E9FC13
S2050002EAF618
S2050002EB0607
S2050002ECB755
S2050002ED0605
S2050002EEF01A
S2050002EF7F8A
S2050002F063A5
S2050002F1E81F
S2050002F2D72F
S2050002F30203
S2050002F413F1
S2050002F506FD
S2050002F605FD
S2050002F70001
S2050002F8936D
S2050002F98679
S2050002FA05F9
S2050002FB00FD
S2050002FCEF0D
S2050002FD30CB
S2050002FE906A
S2050002FF53A6
S20500030013E4
S2050003018472
S20500030205F0
S20500030300F4
S2050003049360
S20500030507EB
S20500030605EC
S20500030700F0
S205000308836C
S20500030920CE
S20500030AC12C
S20500030B01EB
S20500030C9358
S20500030D05E5
S20500030E04E5
S20500030F00E8
S20500031003E4
S20500031124C2
S2050003128164
S20500031301E3
S20500031413D0
S205000315855D
S20500031607DA
S20500031700E0
S20500031813CC
S20500031901DD
S20500031A01DC
S20500031B02DA
S20500031C6774
S20500031D805A
S20500031E00D9
S20500031F00D8
S20500032013C4
S20500032106D0
S20500032201D4
S20500032300D4
S205000324EFE4
S20500032500D2
S205000326C011
S2050003277C54
S20500032813BC
S2050003297559
S20500032A3598
S20500032B00CC
S20500032C9338
S20500032D07C3
S20500032E10B9
S20500032F00C8
S2050003306364
S20500033100C6
S205000332F5D0
S20500033306BE
S2050003349330
S20500033507BB
S20500033620A1
S20500033700C0
S20500033803BC
S2050003392698
S20500033A813C
S20500033B00BC
S20500033C8338
S20500033D2694
S20500033EC1F8
S20500033F00B8
S2050003406354
S2050003410CAA
S205000342F5C0
S20500034302B2
S2050003446350
S205000345189A
S20500034605AC
S20500034706AA
S20500034803AC
S2050003492589
S20500034A01AC
S20500034B00AC
S20500034C8328
S20500034D2585
S20500034E4168
S20500034F00A8
S205000350EFB8
S20500035100A6
S20500035200A5
S205000353089C
S2050003549310
S205000355079B
S205000356059C
S20500035700A0
S205000358138C
S205000359841A
S20500035A0598
S20500035B009C
S20500035C6F2C
S20500035DF0AA
S20500035EDFBA
S20500035FFA9E
S2050003600394
S2050003612472
S2050003628114
S2050003630193
S2050003648310
S2050003652072
S205000366C1D0
S205000367018F
S205000368137C
S2050003690688
S20500036A008D
S20500036B008C
S20500036C93F8
S20500036D0684
S20500036E0089
S20500036F0088
S2050003701374
S2050003710185
S2050003720184
S2050003730282
S2050003746F14
S2050003750082
S205000376C0C1
S205000377057B
S205000378037C
S2050003792559
S20500037A017C
S20500037B007C
S20500037C83F8
S20500037D2555
S20500037E4138
S20500037F0078
S205000380EF88
S2050003810076
S2050003820075
S205000383056F
S20500038493E0
S205000385076B
S205000386056C
S2050003870070
S205000388333C
S205000389442A
S20500038AB4B9
S20500038B006C
S20500038C6FFC
S20500038DF07A
S20500038EDF8A
S20500038FF771
S2050003900364
S2050003912640
S20500039281E4
S2050003930064
S20500039483E0
S205000395263C
S205000396C1A0
S2050003970060
S205000398035C
S2050003992539
S20500039A015C
S20500039B005C
S20500039C83D8
S20500039D2535
S20500039E4118
S20500039F0058
S2050003A01344
S2050003A1074F
S2050003A21045
S2050003A30054
S2050003A4EF64
S2050003A50052
S2050003A60051
S2050003A7460A
S2050003A893BC
S2050003A90747
S2050003AA0548
S2050003AB004C
S2050003AC3318
S2050003AD4406
S2050003AEB495
S2050003AF0048
S2050003B06FD8
S2050003B1F056
S2050003B29FA6
S2050003B3F54F
S2050003B40340
S2050003B5251D
S2050003B60140
S2050003B70040
S2050003B883BC
S2050003B92519
S2050003BA41FC
S2050003BB003C
S2050003BC1328
S2050003BD0733
S2050003BE1029
S2050003BF0038
S2050003C0EF48
S2050003C10036
S2050003C240F5
S2050003C344F0
S2050003C493A0
S2050003C5072B
S2050003C6052C
S2050003C70030
S2050003C8131C
S2050003C984AA
S2050003CA0528
S2050003CB002C
S2050003CC6FBC
S2050003CDF03A
S2050003CEDF4A
S2050003CFF335
S2050003D01314
S2050003D10125
S2050003D20124
S2050003D3FC28
S2050003D42300
S2050003D526FC
S2050003D631F0
S2050003D7031D
S2050003D8938C
S2050003D99985
S2050003DA1508
S2050003DB001C
S2050003DC23F8
S2050003DD28F2
S2050003DE21F8
S2050003DF0315
S2050003E023F4
S2050003E124F2
S2050003E241D4
S2050003E30311
S2050003E423F0
S2050003E522F0
S2050003E651C0
S2050003E7030D
S2050003E823EC
S2050003E92CE2
S2050003EA818C
S2050003EB010B
S2050003EC23E8
S2050003ED2EDC
S2050003EE11F8
S2050003EF0206
S2050003F023E4
S2050003F12CDA
S2050003F28184
S2050003F30202
S2050003F423E0
S2050003F52AD8
S2050003F69170
S2050003F702FE
S2050003F823DC
S2050003F92AD4
S2050003FA916C
S2050003FB01FB
S2050003FC23D8
S2050003FD28D2
S2050003FEA158
S2050003FF01F7
S2050004009363
S205000401D91C
S20500040219DB
S20500040300F3
S205000404B73B
S20500040507EA
S20500040640B0
S2050004073EB1
S20500040813DB
S2050004098964
S20500040A05E7
S20500040B00EB
S20500040C13D7
S20500040D0ADF
S20500040E05E3
S20500040F00E7
S2050004109353
S2050004110ADB
S20500041206DE
S20500041300E3
S20500041413CF
S2050004158C55
S20500041606DA
S20500041700DF
S205000418637B
S205000419FAE3
S20500041AF9E3
S20500041B18C3
S20500041CEFEB
S20500041D4099
S20500041E00D8
S20500041F5285
S2050004206373
S20500042108CD
S20500042205CF
S2050004233C97
S20500042413BF
S20500042506CB
S2050004260AC6
S20500042700CF
S205000428933B
S20500042906C7
S20500042A09C3
S20500042B00CB
S20500042C13B7
S20500042D05C4
S20500042E0ABE
S20500042F00C7
S2050004309333
S20500043105C0
S20500043209BB
S20500043300C3
S205000434EFD3
S2050004353091
S20500043600C0
S2050004374778
S2050004389727
S20500043907B6
S20500043A10AC
S20500043B00BB
S20500043C9327
S20500043D8732
S20500043E07B1
S20500043F5364
S20500044003B3
S205000441A60F
S20500044207AD
S20500044300B3
S205000444832F
S205000445A60B
S2050004464769
S20500044700AF
S205000448931B
S20500044904A9
S20500044A05A7
S20500044B00AB
S20500044C1397
S20500044D8425
S20500044E05A3
S20500044F00A7
S205000450EFB7
S2050004513075
S2050004524064
S205000453455E
S205000454970B
S205000455079A
S2050004561090
S205000457009F
S205000458930B
S2050004598716
S20500045AC7D5
S20500045B514A
S20500045C0397
S20500045DA6F3
S20500045E0791
S20500045F0097
S2050004608313
S205000461A6EF
S205000462474D
S2050004630093
S205000464EFA3
S2050004652071
S205000466C0D0
S205000467038C
S205000468137B
S2050004698607
S20500046A0488
S20500046B008B
S20500046C93F7
S20500046D0683
S20500046E0484
S20500046F0087
S205000470EF97
S2050004713055
S2050004724044
S2050004734340
S20500047497EB
S205000475077A
S2050004761070
S205000477007F
S20500047893EB
S20500047987F6
S20500047A4735
S20500047B502B
S20500047C0377
S20500047DA6D3
S20500047E0771
S20500047F0077
S20500048083F3
S205000481A6CF
S205000482472D
S2050004830073
S205000484EF83
S2050004853041
S2050004861060
S2050004873B34
S205000488135B
S20500048986E7
S20500048A0468
S20500048B006B
S20500048C93D7
S20500048D0663
S20500048E0464
S20500048F0067
S205000490EF77
S2050004913035
S2050004924024
S2050004934122
S20500049497CB
S205000495075A
S2050004961050
S205000497005F
S20500049893CB
S20500049987D6
S20500049AC795
S20500049B4E0D
S20500049C0357
S20500049DA6B3
S20500049E0751
S20500049F0057
S2050004A083D3
S2050004A1A6AF
S2050004A2470D
S2050004A30053
S2050004A4EF63
S2050004A51041
S2050004A6D080
S2050004A77FD0
S2050004A8133B
S2050004A986C7
S2050004AA0448
S2050004AB004B
S2050004AC93B7
S2050004AD0643
S2050004AE0444
S2050004AF0047
S2050004B0EF57
S2050004B13015
S2050004B24004
S2050004B33F04
S2050004B497AB
S2050004B5073A
S2050004B61030
S2050004B7003F
S2050004B893AB
S2050004B987B6
S2050004BA47F5
S2050004BB4DEE
S2050004BC0337
S2050004BDA693
S2050004BE0731
S2050004BF0037
S2050004C083B3
S2050004C1A68F
S2050004C247ED
S2050004C30033
S2050004C4EF43
S2050004C53001
S2050004C61020
S2050004C737F8
S2050004C8131B
S2050004C986A7
S2050004CA0428
S2050004CB002B
S2050004CC9397
S2050004CD0623
S2050004CE0424
S2050004CF0027
S2050004D0EF37
S2050004D130F5
S2050004D240E4
S2050004D33DE6
S2050004D4978B
S2050004D5071A
S2050004D61010
S2050004D7001F
S2050004D8938B
S2050004D98796
S2050004DAC755
S2050004DB4BD0
S2050004DC0317
S2050004DDA673
S2050004DE0711
S2050004DF0017
S2050004E08393
S2050004E1A66F
S2050004E247CD
S2050004E30013
S2050004E4EF23
S2050004E51001
S2050004E6D040
S2050004E77B94
S2050004E813FB
S2050004E98687
S2050004EA0408
S2050004EB000B
S2050004EC9377
S2050004ED0603
S2050004EE0404
S2050004EF0007
S2050004F0EF17
S2050004F130D5
S2050004F240C4
S2050004F33BC8
S2050004F413EF
S2050004F50DF4
S2050004F605FB
S2050004F700FF
S2050004F8936B
S2050004F98C71
S2050004FA05F7
S2050004FB00FB
S2050004FC9763
S2050004FD07F2
S2050004FE10E8
S2050004FF00F7
S2050005009362
S205000501876D
S205000502C72C
S20500050349A9
S20500050403EE
S205000505A64A
S20500050607E8
S20500050700EE
S205000508836A
S205000509A646
S20500050A47A4
S20500050B00EA
S20500050C13D6
S20500050D8563
S20500050E04E3
S20500050F00E6
S2050005109352
S20500051105DF
S20500051204DF
S20500051300E2
S205000514EFF2
S20500051530B0
S20500051600DF
S20500051739A5
S20500051813CA
S20500051907D5
S20500051A05D6
S20500051B00DA
S20500051C9346
S20500051D8751
S20500051E05D2
S20500051F00D6
S20500052013C2
S20500052106CE
S2050005220DC6
S20500052300D2
S20500052413BE
S205000525854B
S20500052604CB
S20500052700CE
S205000528933A
S2050005298646
S20500052A0CBF
S20500052B00CA
S20500052C9336
S20500052D05C3
S20500052E04C3
S20500052F00C6
S2050005309332
S20500053104C0
S20500053207BC
S20500053300C2
S20500053413AE
S205000535843C
S20500053607B8
S20500053700BE
S205000538EFCE
S205000539308C
S20500053AC0FB
S20500053B3684
S20500053C9326
S20500053D8731
S20500053E05B2
S20500053F00B6
S2050005409322
S20500054109AB
S20500054205AE
S20500054300B2
S205000544139E
S205000545862A
S2050005460AA5
S20500054700AE
S205000548931A
S20500054906A6
S20500054A0C9F
S20500054B00AA
S20500054C9316
S20500054D05A3
S20500054E099E
S20500054F00A6
S2050005501392
S205000551059F
S2050005520A99
S20500055300A2
S205000554138E
S2050005558917
S2050005560798
S205000557009E
S205000558EFAE
S205000559306C
S20500055AC0DB
S20500055B3466
S20500055C1386
S20500055D0692
S20500055E0592
S20500055F0096
S2050005609302
S205000561860E
S205000562058E
S2050005630092
S205000564137E
S205000565850B
S2050005660986
S205000567008E
S20500056893FA
S2050005690587
S20500056A0982
S20500056B008A
S20500056CEF9A
S20500056D3058
S20500056E90F7
S20500056F2C5A
S2050005701372
S205000571067E
S205000572057E
S2050005730082
S20500057493EE
S20500057586FA
S205000576057A
S205000577007E
S205000578136A
S20500057985F7
S20500057A0477
S20500057B007A
S20500057C93E6
S20500057D0573
S20500057E0473
S20500057F0076
S205000580EF86
S2050005813044
S2050005825023
S2050005832B47
S20500058497DA
S2050005850769
S205000586105F
S205000587006E
S20500058893DA
S20500058987E5
S20500058AC7A4
S20500058B3C2E
S20500058C1356
S20500058D0662
S20500058E0562
S20500058F0066
S20500059093D2
S20500059186DE
S205000592055E
S2050005930062
S205000594035E
S205000595A5BB
S2050005960758
S205000597005E
S20500059883DA
S205000599A5B7
S20500059A4714
S20500059B005A
S20500059CEF6A
S20500059D3028
S20500059E90C7
S20500059F292D
S2050005A01342
S2050005A1074D
S2050005A2054E
S2050005A30052
S2050005A493BE
S2050005A587C9
S2050005A6054A
S2050005A7004E
S2050005A86FDE
S2050005A9004C
S2050005AAC08B
S2050005AB1E2C
S2050005AC1336
S2050005AD0642
S2050005AE0542
S2050005AF0046
S2050005B093B2
S2050005B186BE
S2050005B2053E
S2050005B30042
S2050005B4EF52
S2050005B53010
S2050005B6003F
S2050005B72F0F
S2050005B897A6
S2050005B90735
S2050005BA102B
S2050005BB003A
S2050005BC93A6
S2050005BD87B1
S2050005BE0730
S2050005BF3BFB
S2050005C00332
S2050005C1A68E
S2050005C2072C
S2050005C30032
S2050005C483AE
S2050005C5A68A
S2050005C647E8
S2050005C7002E
S2050005C8939A
S2050005C90428
S2050005CA0526
S2050005CB002A
S2050005CC1316
S2050005CD84A4
S2050005CE0522
S2050005CF0026
S2050005D0EF36
S2050005D130F4
S2050005D240E3
S2050005D32DF5
S2050005D4978A
S2050005D50719
S2050005D6100F
S2050005D7001E
S2050005D8938A
S2050005D98795
S2050005DAC754
S2050005DB39E1
S2050005DC0316
S2050005DDA672
S2050005DE0710
S2050005DF0016
S2050005E08392
S2050005E1A66E
S2050005E247CC
S2050005E30012
S2050005E4EF22
S2050005E51000
S2050005E6D03F
S2050005E76BA3
S2050005E813FA
S2050005E98686
S2050005EA0407
S2050005EB000A
S2050005EC9376
S2050005ED0602
S2050005EE0403
S2050005EF0006
S2050005F0EF16
S2050005F130D4
S2050005F240C3
S2050005F32BD7
S2050005F4976A
S2050005F507F9
S2050005F610EF
S2050005F700FE
S2050005F8936A
S2050005F98775
S2050005FA47B4
S2050005FB38C2
S2050005FC03F6
S2050005FDA652
S2050005FE07F0
S2050005FF00F6
S2050006008371
S205000601A64D
S20500060247AB
S20500060300F1
S205000604EF01
S20500060530BF
S20500060610DE
S20500060723CA
S20500060813D9
S2050006098665
S20500060A04E6
S20500060B00E9
S20500060C9355
S20500060D06E1
S20500060E04E2
S20500060F00E5
S205000610EFF5
S20500061130B3
S20500061240A2
S20500061329B8
S2050006149749
S20500061507D8
S20500061610CE
S20500061700DD
S2050006189349
S2050006198754
S20500061AC713
S20500061B36A3
S20500061C03D5
S20500061DA631
S20500061E07CF
S20500061F00D5
S2050006208351
S205000621A62D
S205000622478B
S20500062300D1
S205000624EFE1
S20500062510BF
S205000626D0FE
S2050006276766
S20500062813B9
S2050006298645
S20500062A04C6
S20500062B00C9
S20500062C9335
S20500062D06C1
S20500062E04C2
S20500062F00C5
S205000630EFD5
S2050006313093
S2050006324082
S205000633279A
S2050006349729
S20500063507B8
S20500063610AE
S20500063700BD
S2050006389329
S2050006398734
S20500063A4773
S20500063B3584
S20500063C03B5
S20500063DA611
S20500063E07AF
S20500063F00B5
S2050006408331
S205000641A60D
S205000642476B
S20500064300B1
S205000644EFC1
S205000645307F
S205000646109E
S2050006471F8E
S2050006481399
S2050006498625
S20500064A04A6
S20500064B00A9
S20500064C9315
S20500064D06A1
S20500064E04A2
S20500064F00A5
S205000650EFB5
S2050006513073
S2050006524062
S205000653257C
S2050006549709
S2050006550798
S205000656108E
S205000657009D
S2050006589309
S2050006598714
S20500065AC7D3
S20500065B3366
S20500065C0395
S20500065DA6F1
S20500065E078F
S20500065F0095
S2050006608311
S205000661A6ED
S205000662474B
S2050006630091
S205000664EFA1
S205000665107F
S205000666D0BE
S205000667632A
S2050006681379
S2050006698605
S20500066A0486
S20500066B0089
S20500066C93F5
S20500066D0681
S20500066E0482
S20500066F0085
S205000670EF95
S2050006713053
S2050006724042
S205000673235E
S205000674B7C9
S2050006753748
S205000676D3AB
S2050006773F3E
S20500067893E9
S20500067987F4
S20500067A2753
S20500067B3346
S20500067C1365
S20500067D0D6A
S20500067E0571
S20500067F0075
S20500068093E1
S2050006818CE7
S205000682056D
S2050006830071
S205000684E38D
S205000685FC73
S2050006863737
S205000687E786
S2050006882349
S205000689204B
S20500068A6109
S20500068B0366
S20500068C2345
S20500068D2E39
S20500068E71F5
S20500068F0164
S2050006902341
S205000691263D
S205000692B1B1
S2050006930160
S205000694B7A9
S2050006950758
S205000696E975
S2050006973F1E
S20500069863F9
S205000699EA71
S20500069A3723
S20500069B1346
S20500069C3721
S20500069D0750
S20500069EE076
S20500069FFF56
S2050006A0B3A1
S2050006A189CA
S2050006A2E969
S2050006A30051
S2050006A41739
S2050006A50748
S2050006A6103E
S2050006A7004D
S2050006A81339
S2050006A90744
S2050006AAC783
S2050006AB2A1F
S2050006AC0345
S2050006AD2522
S2050006AE073F
S2050006AF0045
S2050006B083C1
S2050006B1251E
S2050006B247FB
S2050006B30041
S2050006B493AD
S2050006B50738
S2050006B6003E
S2050006B7003D
S2050006B893A9
S2050006B986B5
S2050006BA0931
S2050006BB0039
S2050006BC1325
S2050006BD86B1
S2050006BE072F
S2050006BF0035
S2050006C01321
S2050006C18BA8
S2050006C2072B
S2050006C30031
S2050006C4EF41
S2050006C530FF
S2050006C6101E
S2050006C71716
S2050006C89399
S2050006C98BA0
S2050006CA0921
S2050006CB0029
S2050006CC9395
S2050006CD0D1A
S2050006CE0521
S2050006CF0025
S2050006D09391
S2050006D1899A
S2050006D2051D
S2050006D30021
S2050006D49789
S2050006D50718
S2050006D6100E
S2050006D7001D
S2050006D89389
S2050006D98794
S2050006DA47D3
S2050006DB2CED
S2050006DC0315
S2050006DDA671
S2050006DE070F
S2050006DF0015
S2050006E08391
S2050006E1A66D
S2050006E247CB
S2050006E30011
S2050006E413FD
S2050006E5858A
S2050006E6040A
S2050006E7000D
S2050006E89379
S2050006E90506
S2050006EA0406
S2050006EB0009
S2050006ECEF19
S2050006ED30D7
S2050006EE8086
S2050006EF1BEA
S2050006F013F1
S2050006F106FD
S2050006F20BF7
S2050006F30001
S2050006F4936D
S2050006F58679
S2050006F60BF3
S2050006F700FD
S2050006F8EF0D
S2050006F930CB
S2050006FAD02A
S2050006FB13E6
S2050006FC13E5
S2050006FD07F0
S2050006FE05F1
S2050006FF00F5
S2050007009360
S205000701876B
S20500070205EC
S20500070300F0
S20500070413DC
S20500070506E8
S2050007060DE0
S20500070700EC
S20500070813D8
S2050007098565
S20500070A04E5
S20500070B00E8
S20500070C9354
S20500070D8660
S20500070E0CD9
S20500070F00E4
S2050007109350
S20500071105DD
S20500071204DD
S20500071300E0
S205000714934C
S20500071504DA
S20500071607D6
S20500071700DC
S20500071813C8
S2050007198456
S20500071A07D2
S20500071B00D8
S20500071CEFE8
S20500071D30A6
S20500071E8055
S20500071F18BC
S20500072013C0
S20500072107CB
S20500072205CC
S20500072300D0
S205000724933C
S2050007258747
S20500072605C8
S20500072700CC
S20500072813B8
S2050007298644
S20500072A0ABF
S20500072B00C8
S20500072C13B4
S20500072D05C1
S20500072E0ABB
S20500072F00C4
S2050007309330
S20500073106BC
S2050007320CB5
S20500073300C0
S205000734932C
S20500073505B9
S20500073609B4
S20500073700BC
S20500073813A8
S2050007390AB0
S20500073A07B2
S20500073B00B8
S20500073C13A4
S20500073D892D
S20500073E07AE
S20500073F00B4
S205000740EFC4
S2050007413082
S2050007424071
S205000743169A
S205000744139C
S20500074506A8
S20500074605A8
S20500074700AC
S2050007489318
S2050007498624
S20500074A05A4
S20500074B00A8
S20500074C1394
S20500074D05A1
S20500074E0A9B
S20500074F00A4
S2050007509310
S205000751059D
S2050007520998
S20500075300A0
S205000754EFB0
S205000755306E
S205000756108D
S2050007570E8E
S2050007581388
S2050007590694
S20500075A0594
S20500075B0098
S20500075C9304
S20500075D8610
S20500075E0590
S20500075F0094
S2050007601380
S205000761850D
S205000762048D
S2050007630090
S20500076493FC
S2050007650589
S2050007660489
S205000767008C
S205000768EF9C
S205000769305A
S20500076AD0B9
S20500076B0C7C
S20500076C1374
S20500076D0680
S20500076E0580
S20500076F0084
S20500077093F0
S20500077186FC
S205000772057C
S2050007730080
S205000774136C
S20500077585F9
S2050007760D70
S205000777007C
S20500077893E8
S20500077985F5
S20500077A0970
S20500077B0078
S20500077CEF88
S20500077D3046
S20500077E90E5
S20500077F0B69
S2050007800370
S2050007812B47
S2050007820170
S205000783026E
S20500078483EC
S2050007852B43
S205000786C1AC
S205000787016B
S20500078883E8
S2050007892D3D
S20500078AC1A8
S20500078B0068
S20500078C1354
S20500078D075F
S20500078E0560
S20500078F0064
S20500079093D0
S20500079187DB
S205000792055C
S2050007930060
S20500079483DC
S205000795203E
S205000796C19C
S2050007970359
S2050007980358
S2050007992436
S20500079A81D8
S20500079B0355
S20500079C83D4
S20500079D2432
S20500079E4114
S20500079F0351
S2050007A00350
S2050007A12929
S2050007A20150
S2050007A3034D
S2050007A483CC
S2050007A52925
S2050007A6C18C
S2050007A7024A
S2050007A80348
S2050007A92A20
S2050007AA81C8
S2050007AB0246
S2050007AC83C4
S2050007AD2A1C
S2050007AE4104
S2050007AF0242
S2050007B00340
S2050007B12C16
S2050007B281C0
S2050007B3013F
S2050007B483BC
S2050007B52C12
S2050007B641FC
S2050007B7013B
S2050007B80338
S2050007B92D0D
S2050007BA0138
S2050007BB0137
S2050007BC1324
S2050007BD0531
S2050007BE072E
S2050007BF0034
S2050007C093A0
S2050007C185AD
S2050007C2072A
S2050007C30030
S2050007C4131C
S2050007C5012D
S2050007C6012C
S2050007C70428
S2050007C867C4
S2050007C980AA
S2050007CA0029
S2050007CB0028
S2050007CC9790
S2050007CD071F
S2050007CE1015
S2050007CF0024
S2050007D09390
S2050007D1879B
S2050007D2C75A
S2050007D31808
S2050007D4839C
S2050007D5AD71
S2050007D60716
S2050007D7001C
S2050007D88398
S2050007D9A971
S2050007DA47D2
S2050007DB0018
S2050007DC9780
S2050007DD070F
S2050007DE1005
S2050007DF0014
S2050007E09380
S2050007E1878B
S2050007E247CA
S2050007E318F8
S2050007E4030C
S2050007E5AB63
S2050007E60706
S2050007E7000C
S2050007E88388
S2050007E9AB5F
S2050007EA47C2
S2050007EB0008
S2050007EC6F98
S2050007EDF016
S2050007EE9F66
S2050007EFEE16
S2050007F0976C
S2050007F107FB
S2050007F210F1
S2050007F30000
S2050007F4936C
S2050007F58777
S2050007F607F6
S2050007F716E6
S2050007F803F8
S2050007F9A753
S2050007FA07F2
S2050007FB00F8
S2050007FC8374
S2050007FDA74F
S2050007FE47AE
S2050007FF00F4
S2050008006F83
S205000801F001
S2050008025F91
S205000803F9F6
S20500080413DB
S20500080501EC
S20500080601EB
S205000807FDEE
S2050008089357
S2050008099752
S20500080A15D3
S20500080B00E7
S20500080C23C3
S20500080D24C1
S20500080E8163
S20500080F02E1
S20500081023BF
S2050008112EB3
S20500081231AF
S20500081301DE
S20500081423BB
S2050008152CB1
S205000816419B
S20500081701DA
S20500081823B7
S2050008192AAF
S20500081A5187
S20500081B01D6
S20500081C23B3
S20500081D28AD
S20500081E6173
S20500081F01D2
S20500082023AF
S20500082126AB
S20500082211BF
S20500082302CD
S205000824933B
S205000825D7F6
S20500082617B5
S20500082700CB
S2050008283793
S20500082908C1
S20500082A4088
S20500082B3E89
S20500082C13B3
S20500082D8441
S20500082E05BF
S20500082F00C3
S205000830932F
S20500083109B8
S20500083205BB
S20500083300BF
S205000834932B
S2050008350AB3
S20500083606B6
S20500083700BB
S20500083813A7
S2050008398A2F
S20500083A06B2
S20500083B00B7
S20500083C13A3
S20500083D0BAA
S20500083E07AD
S20500083F00B3
S205000840634F
S205000841FAB7
S20500084207A9
S20500084301AE
S205000844EFBF
S205000845406D
S205000846802C
S2050008470F9C
S2050008481397
S2050008498821
S20500084A099F
S20500084B00A7
S20500084C9313
S20500084D079E
S20500084E04A0
S20500084F00A3
S205000850633F
S205000851029F
S205000852059B
S2050008531C83
S205000854138B
S2050008558617
S2050008560993
S205000857009B
S2050008589307
S2050008590693
S20500085A0494
S20500085B0097
S20500085C1383
S20500085D8510
S20500085E098B
S20500085F0093
S20500086093FF
S205000861058C
S205000862048C
S205000863008F
S205000864236B
S205000865226B
S20500086691FB
S2050008670289
S2050008682367
S2050008692069
S20500086A2167
S20500086B0384
S20500086C2363
S20500086D265F
S20500086E7113
S20500086F0182
S205000870235F
S205000871245D
S20500087281FF
S205000873017E
S205000874235B
S205000875225B
S20500087691EB
S205000877017A
S2050008782357
S2050008792059
S20500087AA1D7
S20500087B0176
S20500087CEF87
S20500087D3045
S20500087E80F4
S20500087F0271
S205000880135F
S2050008810968
S205000882056B
S205000883006F
S20500088493DB
S20500088584E9
S2050008860567
S205000887006B
S2050008881357
S2050008890663
S20500088A0563
S20500088B0067
S20500088C93D3
S20500088D86DF
S20500088E055F
S20500088F0063
S205000890134F
S20500089185DC
S2050008920957
S205000893005F
S20500089493CB
S2050008950558
S2050008960458
S205000897005B
S205000898EF6B
S2050008993029
S20500089AC098
S20500089B0057
S20500089C97BF
S20500089D074E
S20500089E1044
S20500089F0053
S2050008A093BF
S2050008A187CA
S2050008A24709
S2050008A3103F
S2050008A4034B
S2050008A5A6A7
S2050008A60745
S2050008A7004B
S2050008A883C7
S2050008A9A6A3
S2050008AA4701
S2050008AB0047
S2050008AC1333
S2050008AD0C39
S2050008AE053F
S2050008AF0043
S2050008B093AF
S2050008B18BB6
S2050008B2053B
S2050008B3003F
S2050008B4132B
S2050008B50538
S2050008B60933
S2050008B7003B
S2050008B893A7
S2050008B985B4
S2050008BA0434
S2050008BB0037
S2050008BCEF47
S2050008BD2015
S2050008BE90A4
S2050008BF7EB5
S2050008C0979B
S2050008C1072A
S2050008C21020
S2050008C3002F
S2050008C4939B
S2050008C587A6
S2050008C687A5
S2050008C70E1D
S2050008C80327
S2050008C9A683
S2050008CA0721
S2050008CB0027
S2050008CC83A3
S2050008CDA67F
S2050008CE47DD
S2050008CF0023
S2050008D0EF33
S2050008D130F1
S2050008D240E0
S2050008D376A9
S2050008D4130B
S2050008D50617
S2050008D60913
S2050008D7001B
S2050008D89387
S2050008D98693
S2050008DA0414
S2050008DB0017
S2050008DCEF27
S2050008DD20F5
S2050008DE9084
S2050008DF7C97
S2050008E0977B
S2050008E1070A
S2050008E21000
S2050008E3000F
S2050008E4937B
S2050008E58786
S2050008E60705
S2050008E70DFE
S2050008E80307
S2050008E9A663
S2050008EA0701
S2050008EB0007
S2050008EC8383
S2050008EDA65F
S2050008EE47BD
S2050008EF0003
S2050008F0EF13
S2050008F110F1
S2050008F210F0
S2050008F33BC4
S2050008F413EB
S2050008F506F7
S2050008F609F3
S2050008F700FB
S2050008F89367
S2050008F98673
S2050008FA04F4
S2050008FB00F7
S2050008FCEF07
S2050008FD20D5
S2050008FE9064
S2050008FF7A79
S205000900975A
S20500090107E9
S20500090210DF
S20500090300EE
S205000904935A
S2050009058765
S2050009068764
S2050009070BDF
S20500090803E6
S205000909A642
S20500090A07E0
S20500090B00E6
S20500090C8362
S20500090DA63E
S20500090E479C
S20500090F00E2
S205000910EFF2
S20500091130B0
S205000912409F
S205000913726C
S20500091413CA
S20500091506D6
S20500091609D2
S20500091700DA
S2050009189346
S2050009198652
S20500091A04D3
S20500091B00D6
S20500091CEFE6
S20500091D20B4
S20500091E9043
S20500091F785A
S205000920973A
S20500092107C9
S20500092210BF
S20500092300CE
S205000924933A
S2050009258745
S20500092607C4
S2050009270AC0
S20500092803C6
S205000929A622
S20500092A07C0
S20500092B00C6
S20500092C8342
S20500092DA61E
S20500092E477C
S20500092F00C2
S205000930EFD2
S20500093110B0
S20500093210AF
S2050009333787
S20500093413AA
S2050009350DAF
S20500093605B6
S20500093700BA
S2050009389326
S2050009398C2C
S20500093A05B2
S20500093B00B6
S20500093C6352
S20500093D00B4
S20500093E0BA8
S20500093F10A2
S205000940971A
S20500094107A9
S205000942109F
S20500094300AE
S205000944931A
S2050009458725
S2050009468724
S20500094705A5
S20500094803A6
S205000949A602
S20500094A07A0
S20500094B00A6
S20500094C8322
S20500094DA6FE
S20500094E475C
S20500094F00A2
S205000950138E
S205000951851B
S2050009520A95
S205000953009E
S205000954930A
S2050009550597
S2050009560A91
S205000957009A
S205000958EFAA
S2050009592078
S20500095AD0C7
S20500095B7422
S20500095C9302
S20500095D078D
S20500095E058E
S20500095F0092
S20500096093FE
S205000961860A
S2050009620C83
S205000963008E
S205000964137A
S2050009658B01
S2050009660586
S205000967008A
S2050009681376
S2050009690682
S20500096A0D7A
S20500096B0086
S20500096C1372
S20500096D057F
S20500096E0C77
S20500096F0082
S20500097093EE
S20500097185FB
S2050009720B74
S205000973007E
S20500097493EA
S2050009758CF0
S2050009760774
S205000977007A
S205000978EF8A
S2050009792058
S20500097AD0A7
S20500097B7204
S20500097C1362
S20500097D066E
S20500097E056E
S20500097F0072
S20500098093DE
S20500098186EA
S205000982056A
S205000983006E
S205000984135A
S20500098585E7
S2050009860C5F
S205000987006A
S20500098893D6
S2050009890563
S20500098A0B5C
S20500098B0066
S20500098CEF76
S20500098D3034
S20500098E80E3
S20500098F6AF8
S205000990134E
S205000991065A
S2050009920956
S205000993005E
S20500099493CA
S20500099586D6
S2050009960457
S205000997005A
S205000998EF6A
S2050009992038
S20500099AD087
S20500099B70E6
S20500099C1342
S20500099D86CE
S20500099E0A49
S20500099F0052
S2050009A093BE
S2050009A1064A
S2050009A20A45
S2050009A3004E
S2050009A4EF5E
S2050009A5301C
S2050009A6004B
S2050009A769E1
S2050009A897B2
S2050009A90741
S2050009AA1037
S2050009AB0046
S2050009AC93B2
S2050009AD87BD
S2050009AE073C
S2050009AF0240
S2050009B0033E
S2050009B1A69A
S2050009B20738
S2050009B3003E
S2050009B483BA
S2050009B5A696
S2050009B647F4
S2050009B7003A
S2050009B81326
S2050009B9092F
S2050009BA0532
S2050009BB0036
S2050009BC93A2
S2050009BD84B0
S2050009BE052E
S2050009BF0032
S2050009C0131E
S2050009C1052B
S2050009C20C23
S2050009C3002E
S2050009C4939A
S2050009C585A7
S2050009C60B20
S2050009C7002A
S2050009C8EF3A
S2050009C92008
S2050009CAD057
S2050009CB6DB9
S2050009CC1312
S2050009CD061E
S2050009CE051E
S2050009CF0022
S2050009D0938E
S2050009D1869A
S2050009D2051A
S2050009D3001E
S2050009D4130A
S2050009D50517
S2050009D60912
S2050009D7001A
S2050009D89386
S2050009D98593
S2050009DA0413
S2050009DB0016
S2050009DCEF26
S2050009DD1004
S2050009DE50C3
S2050009DF2CE6
S2050009E013FE
S2050009E1060A
S2050009E2050A
S2050009E3000E
S2050009E4937A
S2050009E58686
S2050009E60506
S2050009E7000A
S2050009E813F6
S2050009E98583
S2050009EA09FE
S2050009EB0006
S2050009EC9372
S2050009ED05FF
S2050009EE04FF
S2050009EF0002
S2050009F0EF12
S2050009F130D0
S2050009F240BF
S2050009F3649A
S2050009F4837A
S2050009F524D8
S2050009F641BA
S2050009F702F8
S2050009F803F6
S2050009F929CF
S2050009FA01F6
S2050009FB02F4
S2050009FC8372
S2050009FD2BC9
S2050009FEC132
S2050009FF00F2
S205000A0003ED
S205000A012CC3
S205000A02816D
S205000A0300ED
S205000A048369
S205000A052CBF
S205000A0641A9
S205000A0700E9
S205000A0803E5
S205000A092DBA
S205000A0A01E5
S205000A0B00E5
S205000A0C13D1
S205000A0D08DB
S205000A0E05DD
S205000A0F00E1
S205000A10934D
S205000A118758
S205000A1205D9
S205000A1300DD
S205000A148359
S205000A1520BB
S205000A16C119
S205000A1702D7
S205000A1803D5
S205000A1924B3
S205000A1A8155
S205000A1B02D3
S205000A1C8351
S205000A1D29AA
S205000A1EC111
S205000A1F01D0
S205000A2003CD
S205000A212AA5
S205000A22814D
S205000A2301CC
S205000A248349
S205000A252AA1
S205000A264189
S205000A2701C8
S205000A2803C5
S205000A292B9C
S205000A2A01C5
S205000A2B01C4
S205000A2C13B1
S205000A2D05BE
S205000A2E08BA
S205000A2F00C1
S205000A30932D
S205000A31853A
S205000A3207B7
S205000A3300BD
S205000A3413A9
S205000A3501BA
S205000A3601B9
S205000A3703B6
S205000A386751
S205000A398037
S205000A3A00B6
S205000A3B00B5
S205000A3C13A1
S205000A3D06AD
S205000A3E05AD
S205000A3F00B1
S205000A40931D
S205000A418629
S205000A4205A9
S205000A4300AD
S205000A441399
S205000A4505A6
S205000A4609A1
S205000A4700A9
S205000A489315
S205000A498522
S205000A4A04A2
S205000A4B00A5
S205000A4CEFB5
S205000A4D2083
S205000A4E9012
S205000A4F653C
S205000A509709
S205000A510798
S205000A52108E
S205000A53009D
S205000A549309
S205000A558714
S205000A568713
S205000A57F7A2
S205000A580395
S205000A59A6F1
S205000A5A078F
S205000A5B0095
S205000A5C8311
S205000A5DA6ED
S205000A5E474B
S205000A5F0091
S205000A60EFA1
S205000A61305F
S205000A62404E
S205000A635D30
S205000A641379
S205000A650685
S205000A660C7E
S205000A670089
S205000A6893F5
S205000A698601
S205000A6A0B7B
S205000A6B0085
S205000A6CEF95
S205000A6D2063
S205000A6E90F2
S205000A6F631E
S205000A70136D
S205000A7186F9
S205000A720975
S205000A73007D
S205000A7493E9
S205000A750675
S205000A760476
S205000A770079
S205000A78EF89
S205000A791067
S205000A7A90E6
S205000A7B2253
S205000A7C6F05
S205000A7DF083
S205000A7E9FD3
S205000A7FF77A
S205000A80333D
S205000A816708
S205000A82B5B9
S205000A83006D
S205000A8493D9
S205000A850764
S205000A860565
S205000A870069
S205000A886305
S205000A890C5B
S205000A8A075F
S205000A8B0461
S205000A8C372D
S205000A8D075C
S205000A8E0062
S205000A8F80E1
S205000A9063FD
S205000A9182DD
S205000A92E579
S205000A930459
S205000A9493C9
S205000A950655
S205000A96F763
S205000A97FF5A
S205000A98B3A5
S205000A99F661
S205000A9AB6A0
S205000A9B0055
S205000A9C371D
S205000A9D084B
S205000A9EF062
S205000A9FFF52
S205000AA0331D
S205000AA188C7
S205000AA20648
S205000AA3014C
S205000AA4B795
S205000AA50843
S205000AA6E06A
S205000AA77FCA
S205000AA81335
S205000AA90542
S205000AAA4006
S205000AAB0045
S205000AAC63E1
S205000AAD62E1
S205000AAE182A
S205000AAF033E
S205000AB03709
S205000AB10837
S205000AB2102E
S205000AB3003D
S205000AB41329
S205000AB50536
S205000AB6300A
S205000AB70039
S205000AB863D5
S205000AB9EC4B
S205000ABA0531
S205000ABB0134
S205000ABC3301
S205000ABD072C
S205000ABEB77B
S205000ABF0031
S205000AC063CD
S205000AC168C7
S205000AC20727
S205000AC3012C
S205000AC437F5
S205000AC50724
S205000AC6F03A
S205000AC77FAA
S205000AC81315
S205000AC90522
S205000ACA0026
S205000ACB0025
S205000ACC63C1
S205000ACD8E95
S205000ACEE63C
S205000ACF0021
S205000AD067B9
S205000AD1809F
S205000AD2001E
S205000AD3001D
S205000AD433E9
S205000AD535E6
S205000AD6A07A
S205000AD70019
S205000AD81305
S205000AD90512
S205000ADA25F1
S205000ADB0015
S205000ADC67AD
S205000ADD8093
S205000ADE0012
S205000ADF0011
S205000AE013FD
S205000AE1050A
S205000AE220EE
S205000AE3000D
S205000AE467A5
S205000AE5808B
S205000AE6000A
S205000AE70009
S205000AE813F5
S205000AE9B552
S205000AEA17EF
S205000AEB0005
S205000AEC679D
S205000AED8083
S205000AEE0002
S205000AEF0001
S205000AF013ED
S205000AF101FE
S205000AF201FD
S205000AF3F904
S205000AF423D9
S205000AF524D7
S205000AF68179
S205000AF706F3
S205000AF8B741
S205000AF926D1
S205000AFAE90D
S205000AFB3FB6
S205000AFC13E1
S205000AFD945F
S205000AFE15DD
S205000AFF00F1
S205000B0023CC
S205000B0120CE
S205000B0221CC
S205000B0307E5
S205000B0423C8
S205000B0526C4
S205000B0611D8
S205000B0706E2
S205000B0823C4
S205000B0922C4
S205000B0A9154
S205000B0B06DE
S205000B0C13D0
S205000B0D548E
S205000B0E14CD
S205000B0F00E0
S205000B10934C
S205000B118658
S205000B12B627
S205000B131FBD
S205000B1413C8
S205000B1509D1
S205000B1606D3
S205000B1700D8
S205000B186374
S205000B19FADC
S205000B1A864F
S205000B1B1EB6
S205000B1CB71C
S205000B1DE6EC
S205000B1E02CF
S205000B1F4090
S205000B2023AC
S205000B212EA0
S205000B22319C
S205000B2305C7
S205000B249338
S205000B258644
S205000B26B613
S205000B279731
S205000B289334
S205000B29893D
S205000B2A05C0
S205000B2B00C4
S205000B2C6360
S205000B2DE8DA
S205000B2E863B
S205000B2F0AB6
S205000B30239C
S205000B312C92
S205000B32417C
S205000B3305B7
S205000B342398
S205000B352A90
S205000B365168
S205000B3705B3
S205000B389720
S205000B3907AF
S205000B3A10A5
S205000B3B00B4
S205000B3C9320
S205000B3D872B
S205000B3E872A
S205000B3FE9C7
S205000B40634C
S205000B41525C
S205000B42B0FD
S205000B435E4E
S205000B4403A8
S205000B45A604
S205000B4607A2
S205000B4700A8
S205000B488324
S205000B49A600
S205000B4A475E
S205000B4B00A4
S205000B4CEFB4
S205000B4D3072
S205000B4E8021
S205000B4F4E52
S205000B50B7E8
S205000B512777
S205000B52F9A4
S205000B533F5D
S205000B549308
S205000B558713
S205000B56B7E2
S205000B571F79
S205000B581384
S205000B590A8C
S205000B5A0590
S205000B5B0094
S205000B5C9300
S205000B5D8909
S205000B5E058C
S205000B5F0090
S205000B60632C
S205000B610A84
S205000B62F499
S205000B631E6E
S205000B6497F4
S205000B650A80
S205000B661079
S205000B670088
S205000B6893F4
S205000B698AFC
S205000B6A4A3B
S205000B6BE79D
S205000B6C0380
S205000B6DA6DC
S205000B6E0A77
S205000B6F0080
S205000B7083FC
S205000B71A6D8
S205000B724A33
S205000B73007C
S205000B74EF8C
S205000B75304A
S205000B760079
S205000B774C2C
S205000B7893E4
S205000B790472
S205000B7A0570
S205000B7B0074
S205000B7C1360
S205000B7D066C
S205000B7E056C
S205000B7F0070
S205000B8093DC
S205000B8186E8
S205000B820568
S205000B83006C
S205000B841358
S205000B8584E6
S205000B860564
S205000B870068
S205000B881354
S205000B890561
S205000B8A0A5B
S205000B8B0064
S205000B8C93D0
S205000B8D85DD
S205000B8E0958
S205000B8F0060
S205000B90EF70
S205000B91302E
S205000B92401D
S205000B934A12
S205000B940358
S205000B95A6B4
S205000B960A4F
S205000B970058
S205000B9883D4
S205000B99A6B0
S205000B9A4A0B
S205000B9B0054
S205000B9CEF64
S205000B9D3022
S205000B9E80D1
S205000B9F4907
S205000BA083CC
S205000BA12925
S205000BA2C18C
S205000BA30547
S205000BA40348
S205000BA52A20
S205000BA681C8
S205000BA70543
S205000BA883C4
S205000BA92A1C
S205000BAA4104
S205000BAB053F
S205000BAC2320
S205000BAD2022
S205000BAE99A8
S205000BAF0040
S205000BB0231C
S205000BB1221C
S205000BB289B4
S205000BB3003C
S205000BB42318
S205000BB52416
S205000BB6A990
S205000BB70038
S205000BB82314
S205000BB92610
S205000BBAB97C
S205000BBB0034
S205000BBC93A0
S205000BBD042E
S205000BBE1021
S205000BBF0030
S205000BC083AC
S205000BC1200E
S205000BC2C16C
S205000BC30626
S205000BC40328
S205000BC52406
S205000BC681A8
S205000BC70622
S205000BC80324
S205000BC929FD
S205000BCA0124
S205000BCB061E
S205000BCC1310
S205000BCD859D
S205000BCE041D
S205000BCF0020
S205000BD0839C
S205000BD124FA
S205000BD241DC
S205000BD30616
S205000BD41308
S205000BD50119
S205000BD60118
S205000BD70711
S205000BD867B0
S205000BD98096
S205000BDA0015
S205000BDB0014
S205000BDCB75C
S205000BDD26EC
S205000BDE39D8
S205000BDF41CF
S205000BE0937C
S205000BE18688
S205000BE2B657
S205000BE31FED
S205000BE463A8
S205000BE5F01A
S205000BE68683
S205000BE71AEE
S205000BE8B750
S205000BE90600
S205000BEAF015
S205000BEB7F85
S205000BEC63A0
S205000BED7092
S205000BEED42D
S205000BEF14EC
S205000BF023DC
S205000BF12CD2
S205000BF241BC
S205000BF305F7
S205000BF413E8
S205000BF55AA0
S205000BF644B5
S205000BF741B7
S205000BF813E4
S205000BF90AEC
S205000BFAAA4B
S205000BFBBE36
S205000BFC9360
S205000BFD17DB
S205000BFE4AA7
S205000BFF01EF
S205000C0033BB
S205000C0104E9
S205000C02F4F8
S205000C0340AB
S205000C049357
S205000C0505E4
S205000C0604E4
S205000C0700E7
S205000C089353
S205000C0904E1
S205000C0A05DF
S205000C0B00E3
S205000C0C23BF
S205000C0D2AB7
S205000C0E518F
S205000C0F05DA
S205000C10EFEF
S205000C1130AD
S205000C12D00C
S205000C135289
S205000C14EFEB
S205000C1530A9
S205000C16D008
S205000C175A7D
S205000C189343
S205000C1907CE
S205000C1A05CF
S205000C1B00D3
S205000C1C933F
S205000C1D864B
S205000C1E05CB
S205000C1F00CF
S205000C2013BB
S205000C2106C7
S205000C2205C7
S205000C2300CB
S205000C249337
S205000C2505C4
S205000C2604C4
S205000C2700C7
S205000C2813B3
S205000C298540
S205000C2A04C0
S205000C2B00C3
S205000C2C239F
S205000C2D2C95
S205000C2EF1CF
S205000C2F00BF
S205000C309727
S205000C310AB3
S205000C3210AC
S205000C3300BB
S205000C349327
S205000C358A2F
S205000C368A2E
S205000C37DDDA
S205000C382393
S205000C392E87
S205000C3AD1E3
S205000C3B00B3
S205000C3CEFC3
S205000C3D3081
S205000C3E8030
S205000C3F3F70
S205000C4003AB
S205000C41A607
S205000C420AA2
S205000C4300AB
S205000C448327
S205000C45A603
S205000C464A5E
S205000C4700A7
S205000C48EFB7
S205000C492085
S205000C4AD0D4
S205000C4B455E
S205000C4C138F
S205000C4D841D
S205000C4E059B
S205000C4F009F
S205000C50930B
S205000C510499
S205000C520597
S205000C53009B
S205000C54EFAB
S205000C553069
S205000C569008
S205000C574E49
S205000C58EFA7
S205000C593065
S205000C5A9004
S205000C5B563D
S205000C5C93FF
S205000C5D078A
S205000C5E058B
S205000C5F008F
S205000C6093FB
S205000C618607
S205000C620587
S205000C63008B
S205000C641377
S205000C650683
S205000C660583
S205000C670087
S205000C6893F3
S205000C690580
S205000C6A0480
S205000C6B0083
S205000C6C136F
S205000C6D85FC
S205000C6E047C
S205000C6F007F
S205000C70235B
S205000C71205D
S205000C72F18B
S205000C730279
S205000C742357
S205000C752257
S205000C76D1A7
S205000C770275
S205000C78EF87
S205000C793045
S205000C7AC0B4
S205000C7B3B38
S205000C7C036F
S205000C7DA6CB
S205000C7E0A66
S205000C7F006F
S205000C8083EB
S205000C81A6C7
S205000C824A22
S205000C83006B
S205000C8493D7
S205000C850465
S205000C8681E7
S205000C870166
S205000C881353
S205000C890461
S205000C8A3034
S205000C8B0063
S205000C8CEF73
S205000C8D2041
S205000C8E90D0
S205000C8F411E
S205000C90233B
S205000C912439
S205000C92A1BB
S205000C930259
S205000C942337
S205000C952633
S205000C96B1A7
S205000C970255
S205000C980353
S205000C99A5B0
S205000C9A0450
S205000C9B0152
S205000C9C83CF
S205000C9DA5AC
S205000C9E440C
S205000C9F014E
S205000CA0133B
S205000CA10647
S205000CA2004C
S205000CA3004B
S205000CA493B7
S205000CA50643
S205000CA60048
S205000CA70047
S205000CA893B3
S205000CA90A3B
S205000CAA0440
S205000CAB0043
S205000CAC93AF
S205000CAD84BD
S205000CAE84BC
S205000CAFFF40
S205000CB0132B
S205000CB10439
S205000CB2F448
S205000CB3FF3C
S205000CB4EF4B
S205000CB52019
S205000CB6D068
S205000CB71522
S205000CB8E353
S205000CB90035
S205000CBA052F
S205000CBBFE35
S205000CBC979B
S205000CBDF73A
S205000CBE0F21
S205000CBF002F
S205000CC0939B
S205000CC187A6
S205000CC247E5
S205000CC33CEF
S205000CC41317
S205000CC50722
S205000CC62008
S205000CC70027
S205000CC89393
S205000CC9869F
S205000CCA0A1A
S205000CCB0023
S205000CCC130F
S205000CCD061B
S205000CCE0A16
S205000CCF001F
S205000CD0938B
S205000CD10518
S205000CD20913
S205000CD3001B
S205000CD41307
S205000CD50514
S205000CD68197
S205000CD70116
S205000CD8EF27
S205000CD90015
S205000CDA8094
S205000CDB60B3
S205000CDC937F
S205000CDD040D
S205000CDE050B
S205000CDF000F
S205000CE063AB
S205000CE1C24B
S205000CE20903
S205000CE340CB
S205000CE48387
S205000CE520E9
S205000CE6C147
S205000CE70601
S205000CE80303
S205000CE924E1
S205000CEA8183
S205000CEB06FD
S205000CEC837F
S205000CED29D8
S205000CEEC13F
S205000CEF05FA
S205000CF003FB
S205000CF12AD3
S205000CF2817B
S205000CF305F6
S205000CF48377
S205000CF52ACF
S205000CF641B7
S205000CF705F2
S205000CF803F3
S205000CF929CC
S205000CFA01F3
S205000CFB06ED
S205000CFC13DF
S205000CFD856C
S205000CFE04EC
S205000CFF00EF
S205000D00836A
S205000D0124C8
S205000D0241AA
S205000D0306E4
S205000D0413D6
S205000D0501E7
S205000D0601E6
S205000D0707DF
S205000D08677E
S205000D098064
S205000D0A00E3
S205000D0B00E2
S205000D0C13CE
S205000D0D07D9
S205000D0E00DF
S205000D0F00DE
S205000D10934A
S205000D1107D5
S205000D1200DB
S205000D1300DA
S205000D1423B6
S205000D1520B8
S205000D16A92E
S205000D1700D6
S205000D1823B2
S205000D1922B2
S205000D1AB91A
S205000D1B00D2
S205000D1C23AE
S205000D1D24AC
S205000D1EE9E6
S205000D1F00CE
S205000D2023AA
S205000D2126A6
S205000D22F9D2
S205000D2300CA
S205000D249336
S205000D2504C4
S205000D2600C7
S205000D2700C6
S205000D286F56
S205000D29F0D4
S205000D2A9F24
S205000D2BE9D9
S205000D2C13AE
S205000D2D06BA
S205000D2E05BA
S205000D2F00BE
S205000D30932A
S205000D318636
S205000D3205B6
S205000D3300BA
S205000D34EFCA
S205000D353088
S205000D3600B7
S205000D373086
S205000D382392
S205000D392490
S205000D3AA90A
S205000D3B00B2
S205000D3C832E
S205000D3D2987
S205000D3EC1EE
S205000D3F05A9
S205000D40238A
S205000D412686
S205000D42B9F2
S205000D4300AA
S205000D442386
S205000D452088
S205000D46A9FE
S205000D4700A6
S205000D482382
S205000D492282
S205000D4AB9EA
S205000D4B00A2
S205000D4C930E
S205000D4D049C
S205000D4E009F
S205000D4F009E
S205000D506F2E
S205000D51F0AC
S205000D521F7C
S205000D53E7B3
S205000D549702
S205000D550791
S205000D561087
S205000D570096
S205000D589302
S205000D59870D
S205000D5AC7CC
S205000D5BC8CA
S205000D5C038E
S205000D5DA6EA
S205000D5E0788
S205000D5F008E
S205000D60830A
S205000D61A6E6
S205000D624744
S205000D63008A
S205000D6497F2
S205000D650A7E
S205000D661077
S205000D670086
S205000D6893F2
S205000D698AFA
S205000D6A4A39
S205000D6BC8BA
S205000D6CEF92
S205000D6D3050
S205000D6E80FF
S205000D6F2C52
S205000D70037A
S205000D71A6D6
S205000D720A71
S205000D73007A
S205000D7483F6
S205000D75A6D2
S205000D764A2D
S205000D770076
S205000D781362
S205000D790A6A
S205000D7A056E
S205000D7B0072
S205000D7C93DE
S205000D7D89E7
S205000D7E056A
S205000D7F006E
S205000D806FFE
S205000D81F07C
S205000D825F0C
S205000D83DF8B
S205000D842346
S205000D852C3C
S205000D864126
S205000D870561
S205000D882342
S205000D892A3A
S205000D8A5112
S205000D8B055D
S205000D8C233E
S205000D8D2838
S205000D8E61FE
S205000D8F0559
S205000D90233A
S205000D912636
S205000D9271EA
S205000D930555
S205000D942336
S205000D952434
S205000D9681D6
S205000D970551
S205000D982332
S205000D992232
S205000D9A91C2
S205000D9B054D
S205000D9C232E
S205000D9D2030
S205000D9EA1AE
S205000D9F0549
S205000DA0EF5E
S205000DA1103C
S205000DA2004B
S205000DA352F8
S205000DA497B2
S205000DA50741
S205000DA61037
S205000DA70046
S205000DA893B2
S205000DA987BD
S205000DAAC77C
S205000DABC47E
S205000DAC033E
S205000DADA69A
S205000DAE0738
S205000DAF003E
S205000DB083BA
S205000DB1A696
S205000DB247F4
S205000DB3003A
S205000DB493A6
S205000DB50A2E
S205000DB60532
S205000DB70036
S205000DB81322
S205000DB98AAA
S205000DBA052E
S205000DBB0032
S205000DBCEF42
S205000DBD2010
S205000DBE909F
S205000DBF2E00
S205000DC09796
S205000DC10725
S205000DC2101B
S205000DC3002A
S205000DC49396
S205000DC587A1
S205000DC687A0
S205000DC7BD69
S205000DC80322
S205000DC9A67E
S205000DCA071C
S205000DCB0022
S205000DCC839E
S205000DCDA67A
S205000DCE47D8
S205000DCF001E
S205000DD0EF2E
S205000DD1100C
S205000DD2001B
S205000DD36DAD
S205000DD4EF2A
S205000DD530E8
S205000DD69087
S205000DD736E0
S205000DD89382
S205000DD90410
S205000DDA050E
S205000DDB0012
S205000DDCEF22
S205000DDD30E0
S205000DDE50BF
S205000DDF3ED0
S205000DE09776
S205000DE10705
S205000DE210FB
S205000DE3000A
S205000DE49376
S205000DE58781
S205000DE60700
S205000DE7BF47
S205000DE80302
S205000DE9A65E
S205000DEA07FC
S205000DEB0002
S205000DEC837E
S205000DEDA65A
S205000DEE47B8
S205000DEF00FE
S205000DF0936A
S205000DF10CF0
S205000DF205F6
S205000DF300FA
S205000DF413E6
S205000DF58C6C
S205000DF605F2
S205000DF700F6
S205000DF8EF06
S205000DF920D4
S205000DFAD023
S205000DFB2AC8
S205000DFC13DE
S205000DFD06EA
S205000DFE05EA
S205000DFF00EE
S205000E009359
S205000E018665
S205000E0205E5
S205000E0300E9
S205000E0413D5
S205000E058562
S205000E060ADC
S205000E0700E5
S205000E089351
S205000E0905DE
S205000E0A0AD8
S205000E0B00E1
S205000E0CEFF1
S205000E0D30AF
S205000E0E805E
S205000E0F22BB
S205000E109745
S205000E1107D4
S205000E1210CA
S205000E1300D9
S205000E149345
S205000E158750
S205000E16874F
S205000E17BC19
S205000E1803D1
S205000E19A62D
S205000E1A07CB
S205000E1B00D1
S205000E1C834D
S205000E1DA629
S205000E1E4787
S205000E1F00CD
S205000E209339
S205000E210BC0
S205000E2205C5
S205000E2300C9
S205000E2413B5
S205000E258B3C
S205000E2605C1
S205000E2700C5
S205000E2813B1
S205000E29853E
S205000E2A0CB6
S205000E2B00C1
S205000E2C932D
S205000E2D05BA
S205000E2E0CB2
S205000E2F00BD
S205000E30EFCD
S205000E31209B
S205000E32506A
S205000E332792
S205000E349325
S205000E3507B0
S205000E36F0C6
S205000E3701B4
S205000E389321
S205000E390AA9
S205000E3A05AD
S205000E3B00B1
S205000E3C139D
S205000E3D8A25
S205000E3E05A9
S205000E3F00AD
S205000E401399
S205000E4106A5
S205000E4205A5
S205000E4300A9
S205000E449315
S205000E458621
S205000E4605A1
S205000E4700A5
S205000E481391
S205000E49851E
S205000E4A0B97
S205000E4B00A1
S205000E4C930D
S205000E4D059A
S205000E4E0B93
S205000E4F009D
S205000E506339
S205000E51C0DB
S205000E529703
S205000E530C8D
S205000E541385
S205000E558710
S205000E56F4A2
S205000E57FF96
S205000E581381
S205000E59177C
S205000E5A276B
S205000E5B0091
S205000E5C97F9
S205000E5DF798
S205000E5E0F7F
S205000E5F008D
S205000E6093F9
S205000E618704
S205000E624743
S205000E631A6F
S205000E64B3D5
S205000E658700
S205000E66E79F
S205000E670085
S205000E688301
S205000E69A7DC
S205000E6A077B
S205000E6B0081
S205000E6C631D
S205000E6D82FD
S205000E6E87F7
S205000E6F0A73
S205000E70EF8D
S205000E71304B
S205000E72403A
S205000E731C5D
S205000E741365
S205000E750D6A
S205000E760571
S205000E770075
S205000E781361
S205000E7984EF
S205000E7A056D
S205000E7B0071
S205000E7C135D
S205000E7D0768
S205000E7E0569
S205000E7F006D
S205000E8093D9
S205000E8187E4
S205000E820565
S205000E830069
S205000E841355
S205000E850661
S205000E860D59
S205000E870065
S205000E8893D1
S205000E89065D
S205000E8A045E
S205000E8B0061
S205000E8C233D
S205000E8D203F
S205000E8EE975
S205000E8F005D
S205000E902339
S205000E912239
S205000E92F961
S205000E930059
S205000E941345
S205000E9585D2
S205000E960B4B
S205000E970055
S205000E9893C1
S205000E99054E
S205000E9A0B47
S205000E9B0051
S205000E9CEF61
S205000E9D301F
S205000E9E80CE
S205000E9F1934
S205000EA01339
S205000EA186C5
S205000EA20A40
S205000EA30049
S205000EA493B5
S205000EA50641
S205000EA60A3C
S205000EA70045
S205000EA8EF55
S205000EA93013
S205000EAAC082
S205000EAB1829
S205000EAC231D
S205000EAD241B
S205000EAEA995
S205000EAF003D
S205000EB02319
S205000EB12615
S205000EB2B981
S205000EB30039
S205000EB463D5
S205000EB5D067
S205000EB6092D
S205000EB70233
S205000EB8B77D
S205000EB9072C
S205000EBA0032
S205000EBB80B1
S205000EBC33FD
S205000EBDC46B
S205000EBE87A7
S205000EBF002D
S205000EC0B379
S205000EC1C764
S205000EC2B773
S205000EC30029
S205000EC42305
S205000EC52007
S205000EC6A97D
S205000EC70124
S205000EC82301
S205000EC92201
S205000ECA8999
S205000ECB0021
S205000ECC23FD
S205000ECD26F9
S205000ECEF925
S205000ECF001D
S205000ED0B369
S205000ED10417
S205000ED2908A
S205000ED340D9
S205000ED48395
S205000ED520F7
S205000ED6C155
S205000ED7060F
S205000ED80311
S205000ED924EF
S205000EDA8191
S205000EDB060B
S205000EDC838D
S205000EDD29E6
S205000EDEC14D
S205000EDF0508
S205000EE00309
S205000EE12AE1
S205000EE28189
S205000EE30504
S205000EE48385
S205000EE52ADD
S205000EE641C5
S205000EE70500
S205000EE80301
S205000EE92BD8
S205000EEA0101
S205000EEB05FC
S205000EEC837D
S205000EED2BD4
S205000EEEC13D
S205000EEF04F9
S205000EF003F9
S205000EF12CCF
S205000EF28179
S205000EF304F5
S205000EF48375
S205000EF52CCB
S205000EF641B5
S205000EF704F1
S205000EF803F1
S205000EF92DC6
S205000EFA01F1
S205000EFB04ED
S205000EFC03ED
S205000EFD29C6
S205000EFE01ED
S205000EFF06E7
S205000F0013D8
S205000F018565
S205000F0204E5
S205000F0300E8
S205000F048364
S205000F0524C2
S205000F0641A4
S205000F0706DE
S205000F0813D0
S205000F0901E1
S205000F0A01E0
S205000F0B07D9
S205000F0C6778
S205000F0D805E
S205000F0E00DD
S205000F0F00DC
S205000F10EFEC
S205000F1130AA
S205000F124099
S205000F1312C6
S205000F149344
S205000F15D600
S205000F164590
S205000F1701D3
S205000F189340
S205000F19587A
S205000F1A448D
S205000F1B418F
S205000F1C933C
S205000F1DF6D8
S205000F1EF6D7
S205000F1F7F4D
S205000F20B318
S205000F218644
S205000F22D8F1
S205000F234088
S205000F2423A4
S205000F2524A2
S205000F2611B4
S205000F2701C3
S205000F2813B0
S205000F2906BC
S205000F2A00C1
S205000F2B01BF
S205000F2C932C
S205000F2D8737
S205000F2E05B8
S205000F2F00BC
S205000F3013A8
S205000F3107B3
S205000F3205B4
S205000F3300B8
S205000F3413A4
S205000F350DA9
S205000F3605B0
S205000F3700B4
S205000F3813A0
S205000F39842E
S205000F3A05AC
S205000F3B00B0
S205000F3CE3CC
S205000F3D545A
S205000F3ED6D7
S205000F3FF4B8
S205000F409714
S205000F4107A3
S205000F421099
S205000F4300A8
S205000F449314
S205000F45871F
S205000F46079E
S205000F47AAFA
S205000F4803A0
S205000F49A6FC
S205000F4A079A
S205000F4B00A0
S205000F4C831C
S205000F4DA6F8
S205000F4E4756
S205000F4F009C
S205000F501388
S205000F518515
S205000F520C8D
S205000F530098
S205000F549304
S205000F550591
S205000F560C89
S205000F570094
S205000F582370
S205000F592E64
S205000F5AB1E0
S205000F5B038D
S205000F5CEFA0
S205000F5D206E
S205000F5E90FD
S205000F5F1478
S205000F601378
S205000F610A80
S205000F620584
S205000F630088
S205000F641374
S205000F658402
S205000F660580
S205000F670084
S205000F681370
S205000F69067C
S205000F6A057C
S205000F6B0080
S205000F6C93EC
S205000F6D86F8
S205000F6E0578
S205000F6F007C
S205000F701368
S205000F7185F5
S205000F720B6E
S205000F730078
S205000F7493E4
S205000F750571
S205000F760B6A
S205000F770074
S205000F78EF84
S205000F793042
S205000F7AC0B1
S205000F7B0B65
S205000F7C135C
S205000F7D0668
S205000F7E0568
S205000F7F006C
S205000F8093D8
S205000F8186E4
S205000F820564
S205000F830068
S205000F8493D4
S205000F850D59
S205000F860560
S205000F870064
S205000F882340
S205000F89263C
S205000F8AB1B0
S205000F8B0060
S205000F8C134C
S205000F8D85D9
S205000F8E0B52
S205000F8F005C
S205000F9093C8
S205000F918BCF
S205000F920554
S205000F930058
S205000F9493C4
S205000F950551
S205000F960B4A
S205000F970054
S205000F98EF64
S205000F993022
S205000F9AC091
S205000F9B0947
S205000F9C133C
S205000F9D0648
S205000F9E0A43
S205000F9F004C
S205000FA093B8
S205000FA10644
S205000FA20445
S205000FA30048
S205000FA4EF58
S205000FA53016
S205000FA60045
S205000FA7093B
S205000FA897AC
S205000FA9073B
S205000FAA1031
S205000FAB0040
S205000FAC93AC
S205000FAD87B7
S205000FAE0736
S205000FAFA498
S205000FB00338
S205000FB1A694
S205000FB20732
S205000FB30038
S205000FB483B4
S205000FB5A690
S205000FB647EE
S205000FB70034
S205000FB81320
S205000FB90A28
S205000FBA052C
S205000FBB0030
S205000FBC131C
S205000FBD84AA
S205000FBE0528
S205000FBF002C
S205000FC01318
S205000FC185A5
S205000FC20C1D
S205000FC30028
S205000FC49394
S205000FC50521
S205000FC60C19
S205000FC70024
S205000FC8EF34
S205000FC92002
S205000FCAD051
S205000FCB0D13
S205000FCC130C
S205000FCD0618
S205000FCE0A13
S205000FCF001C
S205000FD09388
S205000FD10614
S205000FD20415
S205000FD30018
S205000FD4EF28
S205000FD530E6
S205000FD60015
S205000FD7060E
S205000FD89380
S205000FD9868C
S205000FDA050C
S205000FDB0010
S205000FDC13FC
S205000FDD0608
S205000FDE0508
S205000FDF000C
S205000FE09378
S205000FE10A00
S205000FE20504
S205000FE30008
S205000FE413F4
S205000FE58A7C
S205000FE60500
S205000FE70004
S205000FE813F0
S205000FE9857D
S205000FEA0DF4
S205000FEB0000
S205000FEC936C
S205000FED8579
S205000FEE0BF2
S205000FEF00FC
S205000FF0EF0C
S205000FF130CA
S205000FF240B9
S205000FF304F4
S205000FF48374
S205000FF528CE
S205000FF68174
S205000FF700F4
S205000FF89360
S205000FF9D61C
S205000FFA45AC
S205000FFB01EF
S205000FFC935C
S205000FFDF6F8
S205000FFEF6F7
S205000FFF7F6D
S205001000B337
S2050010018861
S205001002D810
S20500100340A7
S2050010049353
S20500100506DF
S20500100610D4
S20500100703E0
S205001008934F
S205001009875A
S20500100A05DB
S20500100B00DF
S20500100C13CB
S20500100D07D6
S20500100E05D7
S20500100F00DB
S20500101013C7
S2050010110DCC
S20500101205D3
S20500101300D7
S20500101413C3
S2050010158451
S20500101605CF
S20500101700D3
S205001018636F
S205001019DEF3
S20500101A16BA
S20500101B0FC0
S20500101C9737
S20500101D07C6
S20500101E10BC
S20500101F00CB
S2050010209337
S2050010218742
S205001022C701
S2050010239D2A
S20500102403C3
S205001025A61F
S20500102607BD
S20500102700C3
S205001028833F
S205001029A61B
S20500102A4779
S20500102B00BF
S20500102C13AB
S20500102D8538
S20500102E0CB0
S20500102F00BB
S2050010309327
S20500103105B4
S2050010320CAC
S20500103300B7
S205001034EFC7
S2050010352095
S20500103610A4
S20500103707AC
S205001038139F
S2050010390AA7
S20500103A05AB
S20500103B00AF
S20500103C139B
S20500103D8429
S20500103E05A7
S20500103F00AB
S2050010401397
S20500104106A3
S20500104205A3
S20500104300A7
S2050010449313
S205001045861F
S205001046059F
S20500104700A3
S205001048138F
S205001049851C
S20500104A0D93
S20500104B009F
S20500104C930B
S20500104D8518
S20500104E0B91
S20500104F009B
S205001050EFAB
S2050010512079
S2050010525048
S2050010537E19
S2050010549303
S2050010558A0B
S2050010560B89
S2050010570093
S205001058137F
S205001059068B
S20500105A058B
S20500105B008F
S20500105C93FB
S20500105D8607
S20500105E0587
S20500105F008B
S20500106093F7
S2050010610B7E
S2050010620583
S2050010630087
S2050010641373
S2050010658BFA
S205001066057F
S2050010670083
S205001068136F
S20500106985FC
S20500106A0D73
S20500106B007F
S20500106C93EB
S20500106D85F8
S20500106E0A72
S20500106F007B
S205001070EF8B
S2050010712059
S2050010725028
S2050010737CFB
S2050010741363
S205001075066F
S2050010760A6A
S2050010770073
S20500107893DF
S205001079066B
S20500107A046C
S20500107B006F
S20500107CEF7F
S20500107D204D
S20500107E90DC
S20500107F7BF0
S20500108097D3
S2050010810762
S2050010821058
S2050010830067
S20500108493D3
S20500108587DE
S205001086075D
S20500108798CB
S205001088035F
S205001089A6BB
S20500108A0759
S20500108B005F
S20500108C83DB
S20500108DA6B7
S20500108E4715
S20500108F005B
S2050010901347
S2050010910A4F
S2050010920553
S2050010930057
S2050010941343
S20500109584D1
S205001096054F
S2050010970053
S205001098133F
S20500109985CC
S20500109A0C44
S20500109B004F
S20500109C93BB
S20500109D0548
S20500109E0C40
S20500109F004B
S2050010A0EF5B
S2050010A12029
S2050010A250F8
S2050010A30047
S2050010A41333
S2050010A5063F
S2050010A60A3A
S2050010A70043
