S00B0000736C72782E73313920
S20500000013E7
S20500000100F9
S20500000200F8
S20500000300F7
S20500000413E3
S20500000500F5
S20500000600F4
S20500000700F3
S20500000813DF
S20500000900F1
S20500000A00F0
S20500000B00EF
S20500000C13DB
S20500000D00ED
S20500000E00EC
S20500000F00EB
S20500001013D7
S20500001100E9
S20500001200E8
S20500001300E7
S20500001413D3
S20500001500E5
S20500001600E4
S20500001700E3
S20500001813CF
S20500001900E1
S20500001A00E0
S20500001B00DF
S20500001C13CB
S20500001D00DD
S20500001E00DC
S20500001F00DB
S20500002013C7
S20500002100D9
S20500002200D8
S20500002300D7
S20500002413C3
S20500002500D5
S20500002600D4
S20500002700D3
S20500002813BF
S20500002900D1
S20500002A00D0
S20500002B00CF
S20500002C13BB
S20500002D00CD
S20500002E00CC
S20500002F00CB
S20500003013B7
S20500003100C9
S20500003200C8
S20500003300C7
S20500003413B3
S20500003500C5
S20500003600C4
S20500003700C3
S20500003813AF
S20500003900C1
S20500003A00C0
S20500003B00BF
S20500003C13AB
S20500003D00BD
S20500003E00BC
S20500003F00BB
S20500004013A7
S20500004100B9
S20500004200B8
S20500004300B7
S20500004413A3
S20500004500B5
S20500004600B4
S20500004700B3
S205000048139F
S20500004900B1
S20500004A00B0
S20500004B00AF
S20500004C139B
S20500004D00AD
S20500004E00AC
S20500004F00AB
S2050000501397
S20500005100A9
S20500005200A8
S20500005300A7
S2050000541393
S20500005500A5
S20500005600A4
S20500005700A3
S205000058138F
S20500005900A1
S20500005A00A0
S20500005B009F
S20500005C138B
S20500005D009D
S20500005E009C
S20500005F009B
S2050000601387
S2050000610099
S2050000620098
S2050000630097
S2050000641383
S2050000650095
S2050000660094
S2050000670093
S205000068137F
S2050000690091
S20500006A0090
S20500006B008F
S20500006C137B
S20500006D008D
S20500006E008C
S20500006F008B
S2050000701377
S2050000710089
S2050000720088
S2050000730087
S2050000741373
S2050000750085
S2050000760084
S2050000770083
S205000078136F
S2050000790081
S20500007A0080
S20500007B007F
S20500007C136B
S20500007D007D
S20500007E007C
S20500007F007B
S2050000806F0B
S2050000810079
S2050000824038
S2050000830077
S20500008493E3
S2050000850075
S2050000860074
S2050000870073
S205000088135F
S20500008981F0
S20500008A0070
S20500008B006F
S20500008C93DB
S20500008D81EC
S20500008E006C
S20500008F006B
S2050000901357
S20500009182E7
S2050000920068
S2050000930067
S20500009493D3
S20500009582E3
S2050000960064
S2050000970063
S205000098134F
S20500009983DE
S20500009A0060
S20500009B005F
S20500009C93CB
S20500009D83DA
S20500009E005C
S20500009F005B
S2050000A01347
S2050000A184D5
S2050000A20058
S2050000A30057
S2050000A493C3
S2050000A584D1
S2050000A60054
S2050000A70053
S2050000A8133F
S2050000A985CC
S2050000AA0050
S2050000AB004F
S2050000AC93BB
S2050000AD85C8
S2050000AE004C
S2050000AF004B
S2050000B01337
S2050000B186C3
S2050000B20048
S2050000B30047
S2050000B493B3
S2050000B586BF
S2050000B60044
S2050000B70043
S2050000B8132F
S2050000B987BA
S2050000BA0040
S2050000BB003F
S2050000BC93AB
S2050000BD87B6
S2050000BE003C
S2050000BF003B
S2050000C01327
S2050000C188B1
S2050000C20038
S2050000C30037
S2050000C493A3
S2050000C588AD
S2050000C60034
S2050000C70033
S2050000C8131F
S2050000C989A8
S2050000CA0030
S2050000CB002F
S2050000CC939B
S2050000CD89A4
S2050000CE002C
S2050000CF002B
S2050000D01317
S2050000D18A9F
S2050000D20028
S2050000D30027
S2050000D49393
S2050000D58A9B
S2050000D60024
S2050000D70023
S2050000D8130F
S2050000D98B96
S2050000DA0020
S2050000DB001F
S2050000DC938B
S2050000DD8B92
S2050000DE001C
S2050000DF001B
S2050000E01307
S2050000E18C8D
S2050000E20018
S2050000E30017
S2050000E49383
S2050000E58C89
S2050000E60014
S2050000E70013
S2050000E813FF
S2050000E98D84
S2050000EA0010
S2050000EB000F
S2050000EC937B
S2050000ED8D80
S2050000EE000C
S2050000EF000B
S2050000F013F7
S2050000F18E7B
S2050000F20008
S2050000F30007
S2050000F49373
S2050000F58E77
S2050000F60004
S2050000F70003
S2050000F813EF
S2050000F98F72
S2050000FA0000
S2050000FB00FF
S2050000FC936B
S2050000FD8F6E
S2050000FE00FC
S2050000FF00FB
S20500010017E2
S2050001016197
S20500010210E7
S20500010300F6
S20500010413E2
S20500010501F3
S20500010601F2
S205000107DF13
S20500010817DA
S2050001090DE3
S20500010A10DF
S20500010B00EE
S20500010C13DA
S20500010D0DDF
S20500010E8D5E
S20500010F7C6E
S2050001109752
S2050001111DCB
S20500011210D7
S20500011300E6
S2050001149352
S2050001158D57
S2050001168D56
S2050001178F53
S205000118637E
S2050001195888
S20500011ABD22
S20500011B01DD
S20500011C23BA
S20500011D20BC
S20500011E0DCE
S20500011F00DA
S20500012013C6
S2050001210DCB
S2050001224D8A
S20500012300D6
S205000124E3F2
S205000125DCF8
S205000126AD26
S205000127FFD3
S205000128EFE2
S20500012930A0
S20500012A507F
S20500012B7F4F
S20500012C13BA
S20500012D05C7
S20500012E00CB
S20500012F00CA
S2050001309336
S20500013105C3
S20500013200C7
S20500013300C6
S205000134EFD6
S2050001355074
S2050001368043
S205000137467C
S205000138EFD2
S20500013900C0
S20500013A00BF
S20500013B00BE
S20500013C6756
S20500013D803C
S20500013E00BB
S20500013F00BA
S2050001409326
S205000141D7E1
S2050001424572
S2050001434175
S20500014413A2
S20500014501B3
S20500014601B2
S205000147FFB3
S205000148931E
S205000149F7B9
S20500014AF7B8
S20500014B7F2F
S20500014C238A
S20500014D2488
S20500014E812A
S20500014F00AA
S2050001502386
S2050001512286
S2050001529116
S20500015300A6
S2050001542382
S2050001552084
S2050001562182
S20500015701A1
S205000158237E
S205000159267A
S20500015A118E
S20500015B009E
S20500015C138A
S20500015D8715
S20500015E1784
S20500015FC0DA
S2050001609306
S2050001610692
S2050001623067
S2050001630195
S2050001641382
S2050001658410
S205000166058E
S2050001670092
S20500016893FE
S205000169048C
S20500016A058A
S20500016B008E
S20500016C137A
S20500016D0983
S20500016E0685
S20500016F008A
S2050001706326
S205000171CCBC
S205000172E6A1
S2050001730482
S2050001746322
S2050001754A3A
S205000176077C
S2050001771072
S205000178B7CA
S2050001790779
S20500017A106F
S20500017B007E
S20500017C93EA
S20500017D87F5
S20500017EF784
S20500017FFF7B
S205000180B3C6
S205000181D7A1
S205000182E790
S2050001834036
S2050001843342
S205000185F77D
S205000186B7BC
S2050001870072
S205000188333E
S2050001896709
S20500018AA7C8
S20500018B006E
S20500018C630A
S20500018D1A52
S20500018E0764
S20500018F0664
S20500019093D6
S2050001910761
S2050001920463
S2050001930066
S205000194B7AE
S205000195065E
S2050001960063
S20500019780E2
S205000198233E
S2050001992040
S20500019A99C6
S20500019B005E
S20500019C332A
S20500019DF468
S20500019E86D5
S20500019F005A
S2050001A02336
S2050001A12236
S2050001A2F95E
S2050001A30056
S2050001A493C2
S2050001A50450
S2050001A60053
S2050001A70052
S2050001A883CE
S2050001A92030
S2050001AAC18E
S2050001AB004E
S2050001AC93BA
S2050001AD0547
S2050001AE0447
S2050001AF004A
S2050001B00346
S2050001B12424
S2050001B281C6
S2050001B30046
S2050001B40342
S2050001B5291B
S2050001B60142
S2050001B70042
S2050001B8132E
S2050001B985BB
S2050001BA043B
S2050001BB003E
S2050001BC83BA
S2050001BD2418
S2050001BE41FA
S2050001BF003A
S2050001C01326
S2050001C10137
S2050001C20136
S2050001C30135
S2050001C467CE
S2050001C580B4
S2050001C60033
S2050001C70032
S2050001C8939E
S2050001C9062A
S2050001CA30FF
S2050001CB032B
S2050001CC63CA
S2050001CDC26A
S2050001CEE645
S2050001CF0822
S2050001D01316
S2050001D10721
S2050001D2F037
S2050001D3FF27
S2050001D49392
S2050001D5879D
S2050001D6D74C
S2050001D7BE64
S2050001D8B36E
S2050001D957C9
S2050001DAF728
S2050001DB001E
S2050001DC33EA
S2050001DDF725
S2050001DEA774
S2050001DF001A
S2050001E0E336
S2050001E10810
S2050001E20710
S2050001E3FA1C
S2050001E49382
S2050001E5C74D
S2050001E6F71C
S2050001E7FF13
S2050001E8B35E
S2050001E9F719
S2050001EAA768
S2050001EB000E
S2050001EC13FA
S2050001ED8884
S2050001EE0704
S2050001EF000A
S2050001F013F6
S2050001F18682
S2050001F20700
S2050001F30006
S2050001F49372
S2050001F5887C
S2050001F605FE
S2050001F70002
S2050001F8936E
S2050001F9867A
S2050001FA05FA
S2050001FB00FE
S2050001FC6F8E
S2050001FD00FC
S2050001FE00FB
S2050001FF02F8
S2050002009365
S205000201C730
S205000202F7FF
S205000203FFF6
S20500020413E1
S20500020507EC
S20500020600F2
S20500020700F1
S205000208B33D
S205000209F7F8
S20500020AB737
S20500020B00ED
S20500020C13D9
S20500020D08E3
S20500020E07E3
S20500020F00E9
S20500021013D5
S20500021106E1
S20500021207DF
S20500021300E5
S2050002149351
S205000215885B
S20500021607DB
S20500021700E1
S205000218934D
S2050002198659
S20500021A07D7
S20500021B00DD
S20500021C23B9
S20500021D20BB
S20500021E09D1
S20500021F01D8
S20500022023B5
S20500022122B5
S20500022219BD
S20500022301D4
S205000224EFE5
S20500022520B3
S205000226D002
S20500022718B9
S20500022813BD
S205000229844B
S20500022A05C9
S20500022B00CD
S20500022C8349
S20500022D20AB
S20500022EC109
S20500022F00C9
S2050002309335
S20500023105C2
S20500023204C2
S20500023300C5
S20500023403C1
S205000235249F
S2050002368141
S20500023700C1
S205000238932D
S20500023904BB
S20500023A05B9
S20500023B00BD
S20500023C03B9
S20500023D2992
S20500023E01B9
S20500023F00B9
S20500024013A5
S2050002418532
S20500024204B2
S20500024300B5
S2050002448331
S205000245248F
S2050002464171
S20500024700B1
S205000248139D
S20500024901AE
S20500024A01AD
S20500024B01AC
S20500024C6745
S20500024D802B
S20500024E00AA
S20500024F00A9
S2050002502385
S2050002512087
S205000252A9FD
S20500025300A5
S2050002542381
S2050002552281
S205000256B9E9
S20500025700A1
S205000258EFB1
S205000259009F
S20500025A009E
S20500025B0796
S20500025C6339
S20500025D1E7D
S20500025E0595
S20500025F0495
S2050002601385
S2050002618611
S2050002620492
S2050002630095
S2050002641381
S205000265850E
S205000266048E
S2050002670091
S20500026893FD
S2050002690689
S20500026A048A
S20500026B008D
S20500026C93F9
S20500026D0586
S20500026E0486
S20500026F0089
S205000270EF99
S2050002710087
S205000272D0B6
S2050002735A2B
S20500027493F1
S205000275047F
S205000276057D
S2050002770081
S205000278136D
S20500027984FB
S20500027A0579
S20500027B007D
S20500027C2359
S20500027D205B
S20500027EA9D1
S20500027F0079
S2050002802355
S2050002812255
S205000282B9BD
S2050002830075
S2050002846F05
S205000285F083
S2050002865F13
S205000287F27F
S205000288B7B9
S2050002890768
S20500028A006E
S20500028B80ED
S20500028C83E9
S20500028D204B
S20500028EC1A9
S20500028F0069
S205000290B3B5
S205000291F770
S205000292B7AF
S2050002930065
S20500029493D1
S205000295055E
S205000296045E
S2050002970061
S205000298035D
S205000299243B
S20500029A81DD
S20500029B005D
S20500029C2339
S20500029D203B
S20500029E0654
S20500029F0059
S2050002A02335
S2050002A12235
S2050002A2F660
S2050002A30055
S2050002A40351
S2050002A5292A
S2050002A60151
S2050002A70051
S2050002A8133D
S2050002A985CA
S2050002AA044A
S2050002AB004D
S2050002AC83C9
S2050002AD2427
S2050002AE4109
S2050002AF0049
S2050002B01335
S2050002B10146
S2050002B20145
S2050002B30144
S2050002B467DD
S2050002B580C3
S2050002B60042
S2050002B70041
S2050002B8B789
S2050002B90738
S2050002BA003E
S2050002BB80BD
S2050002BC3309
S2050002BDF447
S2050002BE87B3
S2050002BF0039
S2050002C093A5
S2050002C10433
S2050002C20036
S2050002C30035
S2050002C46FC5
S2050002C5F043
S2050002C65FD3
S2050002C7EE43
S2050002C833FD
S2050002C967C8
S2050002CAB579
S2050002CB002D
S2050002CC9399
S2050002CD0724
S2050002CE0525
S2050002CF0029
S2050002D063C5
S2050002D10C1B
S2050002D2071F
S2050002D30421
S2050002D437ED
S2050002D5071C
S2050002D60022
S2050002D780A1
S2050002D863BD
S2050002D9829D
S2050002DAE539
S2050002DB0419
S2050002DC9389
S2050002DD0615
S2050002DEF723
S2050002DFFF1A
S2050002E0B365
S2050002E1F621
S2050002E2B660
S2050002E30015
S2050002E437DD
S2050002E5080B
S2050002E6F022
S2050002E7FF12
S2050002E833DD
S2050002E98887
S2050002EA0608
S2050002EB010C
S2050002ECB755
S2050002ED0803
S2050002EEE02A
S2050002EF7F8A
S2050002F013F5
S2050002F10502
S2050002F240C6
S2050002F30005
S2050002F463A1
S2050002F562A1
S2050002F618EA
S2050002F703FE
S2050002F837C9
S2050002F908F7
S2050002FA10EE
S2050002FB00FD
S2050002FC13E9
S2050002FD05F6
S2050002FE30CA
S2050002FF00F9
S2050003006394
S205000301EC0A
S20500030205F0
S20500030301F3
S20500030433C0
S20500030507EB
S205000306B73A
S20500030700F0
S205000308638C
S2050003096886
S20500030A07E6
S20500030B01EB
S20500030C37B4
S20500030D07E3
S20500030EF0F9
S20500030F7F69
S20500031013D4
S20500031105E1
S20500031200E5
S20500031300E4
S2050003146380
S2050003158E54
S205000316E6FB
S20500031700E0
S2050003186778
S205000319805E
S20500031A00DD
S20500031B00DC
S20500031C33A8
S20500031D35A5
S20500031EA039
S20500031F00D8
S20500032013C4
S20500032105D1
S20500032225B0
S20500032300D4
S205000324676C
S2050003258052
S20500032600D1
S20500032700D0
S20500032813BC
S20500032905C9
S20500032A20AD
S20500032B00CC
S20500032C6764
S20500032D804A
S20500032E00C9
S20500032F00C8
S20500033013B4
S205000331B511
S20500033217AE
S20500033300C4
S205000334675C
S2050003358042
S20500033600C1
S20500033700C0
S20500033813AC
S20500033901BD
S20500033A01BC
S20500033BFDBF
S20500033C2398
S20500033D209A
S20500033E2198
S20500033F03B5
S2050003402394
S2050003412C8A
S2050003424174
S20500034301B3
S2050003442390
S205000345268C
S20500034611A0
S20500034702AE
S205000348238C
S205000349228C
S20500034A911C
S20500034B02AA
S20500034C2388
S20500034D2E7C
S20500034E3178
S20500034F01A7
S2050003502384
S2050003512680
S2050003527134
S20500035301A3
S2050003541390
S2050003550999
S205000356059C
S20500035700A0
S205000358138C
S2050003590A94
S20500035A009D
S20500035B009C
S20500035C6338
S20500035DC6D4
S20500035E0594
S20500035F1A7E
S2050003606334
S205000361DCBA
S205000362068F
S2050003630094
S205000364B3E0
S205000365375B
S205000366C0D1
S2050003670090
S205000368B3DC
S2050003690688
S20500036AD0BD
S20500036B404C
S20500036C1378
S20500036D4A40
S20500036EFA8F
S20500036FFF89
S205000370B3D4
S2050003718600
S205000372F68F
S2050003734044
S2050003743350
S205000375067C
S205000376C0C1
S2050003774040
S20500037893EC
S2050003790B73
S20500037A0677
S20500037B007C
S20500037C93E8
S20500037D0971
S20500037E0970
S20500037F0078
S20500038093E4
S20500038184F2
S2050003820570
S2050003830074
S2050003846310
S20500038590E2
S205000386066B
S205000387145C
S205000388234C
S205000389244A
S20500038A81EC
S20500038B026A
S20500038C2348
S20500038D2A40
S20500038E5118
S20500038F0167
S2050003902344
S205000391283E
S2050003926104
S2050003930163
S2050003946300
S205000395FE64
S205000396C59C
S2050003971C44
S205000398B7A8
S2050003990757
S20500039A015C
S20500039B005C
S20500039C63F8
S20500039D64F6
S20500039EF663
S20500039F2E2A
S2050003A0B7A0
S2050003A1074F
S2050003A20055
S2050003A30153
S2050003A41340
S2050003A5074B
S2050003A680D1
S2050003A7014F
S2050003A863EC
S2050003A974DA
S2050003AAF657
S2050003AB004C
S2050003AC1338
S2050003AD0743
S2050003AE0049
S2050003AF0147
S2050003B0B790
S2050003B1073F
S2050003B21035
S2050003B30044
S2050003B4B390
S2050003B556EC
S2050003B6E65B
S2050003B70040
S2050003B893AC
S2050003B987B7
S2050003BA87B6
S2050003BB0E2E
S2050003BCB388
S2050003BD87B3
S2050003BED762
S2050003BF0038
S2050003C083B4
S2050003C1C76F
S2050003C2072E
S2050003C30034
S2050003C493A0
S2050003C5062C
S2050003C60031
S2050003C7022E
S2050003C8B37C
S2050003C987A7
S2050003CAE746
S2050003CB002C
S2050003CC33F8
S2050003CD87A3
S2050003CEF633
S2050003CF40E8
S2050003D063C4
S2050003D18C9A
S2050003D2F62F
S2050003D30024
S2050003D4B370
S2050003D5948E
S2050003D6E53C
S2050003D70020
S2050003D8B36C
S2050003D957C7
S2050003DAF924
S2050003DB001C
S2050003DCB368
S2050003DD1BFF
S2050003DEE633
S2050003DF0018
S2050003E0B364
S2050003E1E432
S2050003E2977E
S2050003E30014
S2050003E4B360
S2050003E519F9
S2050003E6E928
S2050003E70010
S2050003E8937C
S2050003E9DA34
S2050003EA0B02
S2050003EB010B
S2050003EC9378
S2050003ED8585
S2050003EE0AFF
S2050003EF0008
S2050003F013F4
S2050003F18581
S2050003F20401
S2050003F30004
S2050003F413F0
S2050003F59B67
S2050003F60BF6
S2050003F701FF
S2050003F8EF10
S2050003F930CE
S2050003FA10ED
S2050003FB3FBD
S2050003FC13E8
S2050003FD5B9F
S2050003FE0BEE
S2050003FF01F7
S2050004009363
S20500040105F0
S20500040205EF
S20500040300F3
S20500040413DF
S20500040504ED
S20500040605EB
S20500040700EF
S20500040813DB
S20500040905E8
S20500040A0BE1
S20500040B00EB
S20500040CEFFB
S20500040D30B9
S20500040E10D8
S20500040F3BAC
S2050004109353
S20500041107DE
S20500041205DF
S20500041300E3
S205000414934F
S205000415855C
S2050004160AD6
S20500041700DF
S20500041813CB
S2050004198558
S20500041A04D8
S20500041B00DB
S20500041C9347
S20500041D8455
S20500041E07D1
S20500041F00D7
S205000420EFE7
S20500042130A5
S20500042210C4
S2050004234192
S20500042413BF
S20500042515BC
S20500042605CB
S20500042701CE
S205000428933B
S205000429D7F6
S20500042A09C3
S20500042B01CA
S20500042CB317
S20500042DE7E2
S20500042EA721
S20500042F00C7
S2050004306363
S205000431FCC9
S205000432972D
S20500043300C3
S205000434B30F
S205000435873A
S205000436FBC5
S20500043700BF
S20500043813AB
S20500043907B6
S20500043AF4C8
S20500043BFFBC
S20500043C6357
S20500043DE4D5
S20500043E7741
S20500043F01B6
S2050004406353
S205000441E8CD
S205000442971D
S205000443585B
S205000444139F
S20500044504AD
S20500044607A9
S20500044700AF
S205000448B3FB
S2050004498429
S20500044A9715
S20500044B406B
S20500044C9317
S20500044D8524
S20500044E0A9E
S20500044F00A7
S2050004501393
S2050004518520
S20500045204A0
S20500045300A3
S205000454EFB3
S2050004553071
S2050004565050
S2050004573966
S205000458930B
S2050004590598
S20500045A0597
S20500045B009B
S20500045C1387
S20500045D0990
S20500045E0593
S20500045F0097
S2050004601383
S2050004610590
S2050004620B89
S2050004630093
S205000464EFA3
S2050004653061
S2050004669000
S205000467355A
S20500046893FB
S2050004690786
S20500046A0587
S20500046B008B
S20500046C93F7
S20500046D8504
S20500046E0A7E
S20500046F0087
S2050004701373
S2050004718500
S2050004720480
S2050004730083
S20500047493EF
S20500047599E8
S2050004760977
S205000477017E
S20500047893EB
S20500047984F9
S20500047A0775
S20500047B007B
S20500047CEF8B
S20500047D3049
S20500047E5028
S20500047F3B3C
S2050004801363
S2050004811560
S205000482056F
S2050004830172
S20500048493DF
S205000485D998
S2050004860967
S205000487016E
S205000488B3BB
S205000489E984
S20500048AA9C3
S20500048B006B
S20500048C6307
S20500048DFE6B
S20500048E99CF
S20500048F0067
S205000490B3B3
S20500049189DC
S2050004923B29
S2050004930162
S20500049493CF
S205000495075A
S205000496F967
S205000497FF60
S20500049863FB
S205000499E677
S20500049A79E3
S20500049B015A
S20500049C1347
S20500049D0950
S20500049EE96F
S20500049FFF58
S2050004A063F3
S2050004A1E471
S2050004A299BB
S2050004A30053
S2050004A4133F
S2050004A589C8
S2050004A60749
S2050004A7004F
S2050004A8133B
S2050004A91439
S2050004AA0448
S2050004AB014A
S2050004AC3317
S2050004AD65E4
S2050004AE2424
S2050004AF0146
S2050004B083C3
S2050004B12A1B
S2050004B24103
S2050004B30142
S2050004B4033F
S2050004B5241D
S2050004B681BF
S2050004B7023D
S2050004B8033B
S2050004B92B12
S2050004BA013B
S2050004BB013A
S2050004BC1327
S2050004BD0930
S2050004BE0038
S2050004BF0037
S2050004C06FC7
S2050004C10035
S2050004C20034
S2050004C30132
S2050004C463CF
S2050004C5FE33
S2050004C6D55B
S2050004C7042B
S2050004C8131B
S2050004C90924
S2050004CA002C
S2050004CB002B
S2050004CC1317
S2050004CD0524
S2050004CE0028
S2050004CF0027
S2050004D09393
S2050004D10520
S2050004D2091B
S2050004D30023
S2050004D463BF
S2050004D50A17
S2050004D60A16
S2050004D7001F
S2050004D8B36B
S2050004D937E6
S2050004DAA07C
S2050004DB001B
S2050004DCB367
S2050004DD0514
S2050004DE20F8
S2050004DF41D6
S2050004E0B363
S2050004E18590
S2050004E2F51F
S2050004E340D3
S2050004E433DF
S2050004E5050C
S2050004E6A070
S2050004E740CF
S2050004E8838B
S2050004E920ED
S2050004EAC14B
S2050004EB0209
S2050004EC8387
S2050004ED24E5
S2050004EE41C7
S2050004EF0205
S2050004F00303
S2050004F129DC
S2050004F20103
S2050004F30201
S2050004F4837F
S2050004F529D8
S2050004F6C13F
S2050004F701FE
S2050004F803FB
S2050004F92AD3
S2050004FA817B
S2050004FB01FA
S2050004FC8377
S2050004FD2BCE
S2050004FEC137
S2050004FF00F7
S20500050013E2
S20500050101F3
S20500050201F2
S20500050303EF
S205000504678A
S2050005058070
S20500050600EF
S20500050700EE
S205000508B33A
S20500050937B5
S20500050AA04B
S20500050B00EA
S20500050CB336
S20500050D05E3
S20500050EB037
S20500050F40A6
S205000510B332
S205000511855F
S205000512F5EE
S20500051340A2
S20500051433AE
S20500051509D7
S205000516A03F
S205000517409E
S20500051813CA
S2050005190AD2
S20500051AF0EB
S20500051BFFDB
S20500051C6F6A
S20500051DF0E8
S20500051E5F78
S20500051FE4F2
S205000520B71E
S20500052107CD
S20500052201D2
S20500052300D2
S205000524636E
S205000525E4EC
S205000526F6D9
S20500052728A6
S205000528B716
S20500052907C5
S20500052A00CB
S20500052B01C9
S20500052C13B6
S20500052D05C3
S20500052E8047
S20500052F01C5
S2050005306362
S205000531F4D0
S205000532F6CD
S20500053300C2
S20500053413AE
S20500053505BB
S20500053600BF
S20500053701BD
S205000538B706
S20500053907B5
S20500053A10AB
S20500053B00BA
S20500053C3386
S20500053DD7E1
S20500053EA611
S20500053F00B6
S2050005409322
S205000541872D
S205000542872C
S2050005430EA4
S205000544B3FE
S2050005458729
S205000546E7C8
S20500054700AE
S20500054803AA
S205000549C7E5
S20500054A07A4
S20500054B00AA
S20500054C9316
S20500054D07A1
S20500054E00A7
S20500054F02A4
S2050005503372
S205000551079D
S205000552A7FC
S20500055300A2
S205000554B3EE
S2050005558B15
S205000556E7B8
S205000557405E
S205000558633A
S205000559920A
S20500055AE7B4
S20500055B2674
S20500055C6336
S20500055DEEAA
S20500055EB6E1
S20500055F4254
S2050005603362
S205000561355F
S205000562C9CA
S2050005630092
S205000564137E
S205000565355B
S205000566157A
S205000567008E
S205000568137A
S2050005690983
S20500056A008B
S20500056B008A
S20500056C6F1A
S20500056DF098
S20500056E5F28
S20500056FF690
S2050005706322
S2050005710282
S205000572067D
S2050005731270
S205000574B7CA
S2050005750779
S205000576017E
S205000577007E
S205000578631A
S2050005797606
S20500057AF685
S20500057B403A
S20500057C1366
S20500057D3741
S20500057E0671
S20500057F1066
S2050005801362
S205000581373D
S205000582175C
S2050005830072
S205000584135E
S2050005851759
S2050005863738
S205000587006E
S205000588B3BA
S2050005895616
S20500058AE685
S20500058B006A
S20500058CB7B2
S20500058D0761
S20500058E1057
S20500058F0066
S20500059093D2
S20500059187DD
S20500059287DC
S2050005930E54
S205000594B3AE
S20500059587D9
S205000596D788
S205000597005E
S20500059883DA
S205000599CA92
S20500059A0754
S20500059B005A
S20500059C93C6
S20500059D0751
S20500059E0057
S20500059F0254
S2050005A0B3A2
S2050005A18ACA
S2050005A2EA69
S2050005A30052
S2050005A4331E
S2050005A587C9
S2050005A657F8
S2050005A7410D
S2050005A863EA
S2050005A99AB2
S2050005AA57F4
S2050005AB1139
S2050005AC93B6
S2050005AD1434
S2050005AE0641
S2050005AF0145
S2050005B0B392
S2050005B18ABA
S2050005B2C57E
S2050005B34002
S2050005B4132E
S2050005B55BE5
S2050005B60639
S2050005B7013D
S2050005B893AA
S2050005B9D468
S2050005BA0437
S2050005BB0139
S2050005BC1326
S2050005BD092F
S2050005BE1027
S2050005BF0036
S2050005C093A2
S2050005C1052F
S2050005C20B28
S2050005C30032
S2050005C4131E
S2050005C585AB
S2050005C60A25
S2050005C7002E
S2050005C8EF3E
S2050005C930FC
S2050005CA101B
S2050005CB2208
S2050005CC9396
S2050005CD85A3
S2050005CE0423
S2050005CF0026
S2050005D01312
S2050005D10420
S2050005D2051E
S2050005D30022
S2050005D4EF32
S2050005D530F0
S2050005D6908F
S2050005D71E00
S2050005D8938A
S2050005D90715
S2050005DA0516
S2050005DB001A
S2050005DC9386
S2050005DD0513
S2050005DE0B0C
S2050005DF0016
S2050005E01302
S2050005E1858F
S2050005E20A09
S2050005E30012
S2050005E4937E
S2050005E58A86
S2050005E60708
S2050005E7000E
S2050005E8EF1E
S2050005E930DC
S2050005EA907B
S2050005EB24E6
S2050005EC13F6
S2050005ED15F3
S2050005EE0502
S2050005EF0105
S2050005F09372
S2050005F1D72D
S2050005F209FA
S2050005F30101
S2050005F4B34E
S2050005F5E719
S2050005F6A758
S2050005F700FE
S2050005F8639A
S2050005F9FC00
S2050005FA57A4
S2050005FB01F9
S2050005FCB346
S2050005FD8771
S2050005FEFBFC
S2050005FF00F6
S20500060013E1
S20500060107EC
S205000602F4FE
S205000603FFF2
S205000604638D
S205000605E40B
S2050006067777
S20500060701EC
S2050006086389
S205000609EEFD
S20500060A5793
S20500060B3BAE
S20500060C13D5
S20500060D04E3
S20500060E07DF
S20500060F00E5
S205000610B331
S2050006118A59
S205000612578B
S20500061341A0
S205000614934D
S20500061505DA
S2050006160BD3
S20500061700DD
S20500061813C9
S2050006198556
S20500061A0AD0
S20500061B00D9
S20500061CEFE9
S20500061D30A7
S20500061ED006
S20500061F1CB9
S2050006209341
S205000621854E
S20500062204CE
S20500062300D1
S205000624933D
S20500062504CB
S20500062605C9
S20500062700CD
S205000628EFDD
S205000629309B
S20500062A507A
S20500062B19B0
S20500062C9335
S20500062D07C0
S20500062E05C1
S20500062F00C5
S2050006309331
S20500063105BE
S2050006320BB7
S20500063300C1
S20500063413AD
S205000635853A
S2050006360AB4
S20500063700BD
S2050006389329
S2050006399922
S20500063A09B1
S20500063B01B8
S20500063C9325
S20500063D8A2D
S20500063E07AF
S20500063F00B5
S205000640EFC5
S2050006413083
S20500064210A2
S2050006431F92
S205000644139D
S205000645159A
S20500064605A9
S20500064701AC
S2050006489319
S205000649D9D2
S20500064A09A1
S20500064B01A8
S20500064CB3F5
S20500064DE9BE
S20500064EA9FD
S20500064F00A5
S2050006506341
S205000651FEA5
S2050006525949
S20500065301A0
S205000654B3ED
S2050006558916
S2050006563B63
S205000657019C
S2050006589309
S2050006598714
S20500065AF4A6
S20500065BFF9A
S20500065C6335
S20500065DE6B1
S20500065E791D
S20500065F0194
S2050006609301
S205000661840F
S205000662E4AE
S205000663FF92
S205000664632D
S205000665E4AB
S2050006665935
S205000667018C
S20500066893F9
S2050006698407
S20500066A0783
S20500066B0089
S20500066C1375
S20500066D1572
S20500066E0482
S20500066F0184
S2050006708301
S2050006712A59
S2050006724141
S2050006730180
S205000674037D
S205000675245B
S20500067681FD
S205000677027B
S2050006780379
S2050006792B50
S20500067A0179
S20500067B0178
S20500067C3345
S20500067D6512
S20500067E95E1
S20500067F0075
S2050006806F05
S205000681F083
S2050006821F53
S205000683E58C
S205000684135D
S2050006853738
S2050006860668
S205000687105D
S2050006881359
S2050006893734
S20500068A1753
S20500068B0069
S20500068C1355
S20500068D1750
S20500068E372F
S20500068F0065
S2050006906FF5
S205000691F073
S2050006921F43
S205000693D28F
S205000694B7A9
S2050006950758
S205000696104E
S205000697005D
S20500069893C9
S2050006990655
S20500069A005A
S20500069B0059
S20500069C93C5
S20500069D87D0
S20500069E87CF
S20500069F0E47
S2050006A0B3A1
S2050006A187CC
S2050006A2D77B
S2050006A30051
S2050006A483CD
S2050006A5CA85
S2050006A60747
S2050006A7004D
S2050006A81339
S2050006A90744
S2050006AA004A
S2050006AB0049
S2050006AC93B5
S2050006AD0740
S2050006AE0046
S2050006AF0243
S2050006B0B391
S2050006B18AB9
S2050006B2EA58
S2050006B30041
S2050006B4330D
S2050006B587B8
S2050006B657E7
S2050006B741FC
S2050006B8E359
S2050006B98AB1
S2050006BA57E3
S2050006BBEF4A
S2050006BCB385
S2050006BD1B1C
S2050006BEE650
S2050006BF0035
S2050006C02311
S2050006C1240F
S2050006C281B1
S2050006C30130
S2050006C4131D
S2050006C5DB54
S2050006C60B23
S2050006C7012C
S2050006C833F9
S2050006C9DC4F
S2050006CA55D5
S2050006CB0128
S2050006CCB375
S2050006CD9790
S2050006CEE541
S2050006CF0025
S2050006D0B371
S2050006D15AC9
S2050006D259C9
S2050006D30120
S2050006D4938D
S2050006D5051A
S2050006D60B13
S2050006D7001D
S2050006D81309
S2050006D90516
S2050006DA0C0E
S2050006DB0019
S2050006DC9385
S2050006DD9483
S2050006DE0B0B
S2050006DF0114
S2050006E0B361
S2050006E1EA29
S2050006E2FA18
S2050006E30011
S2050006E4B35D
S2050006E519F6
S2050006E6E925
S2050006E7000D
S2050006E89379
S2050006E9D437
S2050006EA0406
S2050006EB0108
S2050006ECEF19
S2050006ED30D7
S2050006EED036
S2050006EF0FF6
S2050006F09371
S2050006F105FE
S2050006F205FD
S2050006F30001
S2050006F413ED
S2050006F509F6
S2050006F605F9
S2050006F700FD
S2050006F813E9
S2050006F98576
S2050006FA04F6
S2050006FB00F9
S2050006FCEF09
S2050006FD30C7
S2050006FE10E6
S2050006FF0CE9
S20500070013E0
S20500070104EE
S20500070205EC
S20500070300F0
S205000704935C
S20500070505E9
S2050007060BE2
S20500070700EC
S20500070813D8
S20500070905E5
S20500070A0CDD
S20500070B00E8
S20500070CEFF8
S20500070D30B6
S20500070E5095
S20500070F12D2
S20500071013D0
S20500071115CD
S20500071205DC
S20500071301DF
S205000714934C
S205000715D707
S2050007160AD3
S20500071701DB
S205000718B328
S205000719E7F3
S20500071AA732
S20500071B00D8
S20500071C6374
S20500071DFED8
S20500071E874E
S20500071F00D4
S205000720B320
S205000721874B
S205000722FBD6
S20500072300D0
S20500072413BC
S20500072507C7
S205000726F9D4
S205000727FFCD
S2050007286368
S205000729E6E4
S20500072A7752
S20500072B299F
S20500072C6364
S20500072DF4D2
S20500072E873E
S20500072F289C
S20500073013B0
S20500073109B9
S205000732E9D8
S205000733FFC1
S205000734B30C
S2050007358737
S2050007367746
S20500073701BB
S2050007383388
S2050007398436
S20500073A8732
S20500073B4078
S20500073C9324
S20500073D05B1
S20500073E0BAA
S20500073F00B4
S20500074013A0
S20500074105AD
S20500074204AD
S20500074300B0
S205000744EFC0
S205000745307E
S205000746505D
S2050007470AA2
S2050007489318
S20500074905A5
S20500074A05A4
S20500074B00A8
S20500074C1394
S20500074D0C9A
S20500074E05A0
S20500074F00A4
S2050007501390
S205000751851D
S205000752049D
S20500075300A0
S205000754EFB0
S205000755306E
S205000756900D
S2050007570696
S2050007589308
S2050007590793
S20500075A0594
S20500075B0098
S20500075C9304
S20500075D0591
S20500075E0B8A
S20500075F0094
S2050007601380
S205000761058D
S205000762048D
S2050007630090
S20500076493FC
S2050007659AF4
S2050007660A83
S205000767018B
S2050007681378
S2050007698406
S20500076A0782
S20500076B0088
S20500076CEF98
S20500076D3056
S20500076E5035
S20500076F0C78
S2050007701370
S205000771156D
S205000772057C
S205000773017F
S20500077493EC
S205000775DAA4
S2050007760A73
S205000777017B
S205000778B3C8
S205000779EA90
S20500077AAACF
S20500077B0078
S20500077C6314
S20500077DFE78
S20500077E8AEB
S20500077F0074
S205000780B3C0
S2050007818AE8
S2050007825B16
S205000783016F
S20500078493DC
S2050007850767
S205000786FC71
S205000787FF6D
S2050007886308
S205000789EE7C
S20500078A7AEF
S20500078B2147
S20500078C6304
S20500078DFC6A
S20500078E8ADB
S20500078F2044
S2050007901350
S2050007910C56
S205000792EC75
S205000793FF61
S205000794B3AC
S2050007958AD4
S2050007967AE3
S205000797015B
S2050007981348
S2050007991941
S20500079A0950
S20500079B0157
S20500079C3324
S20500079D69ED
S20500079E89CC
S20500079F0153
S2050007A0B3A0
S2050007A18AC8
S2050007A28AC7
S2050007A34010
S2050007A4034C
S2050007A52C22
S2050007A681CC
S2050007A7004C
S2050007A86FDC
S2050007A9F05A
S2050007AA9FAA
S2050007ABE167
S2050007AC1334
S2050007ADB591
S2050007AE063F
S2050007AF1034
S2050007B01330
S2050007B1350D
S2050007B2152C
S2050007B30040
S2050007B4132C
S2050007B51529
S2050007B63508
S2050007B7003C
S2050007B86FCC
S2050007B9F04A
S2050007BA1F1A
S2050007BBD860
S2050007BCB384
S2050007BD96A0
S2050007BE76BF
S2050007BF0133
S2050007C02310
S2050007C12012
S2050007C2A190
S2050007C3012F
S2050007C433FC
S2050007C55DD1
S2050007C6E647
S2050007C7002C
S2050007C833F8
S2050007C96DBD
S2050007CADD4C
S2050007CB0028
S2050007CC2304
S2050007CD2AFC
S2050007CE51D4
S2050007CF0123
S2050007D02300
S2050007D12200
S2050007D29190
S2050007D3011F
S2050007D4938C
S2050007D55AC4
S2050007D60D10
S2050007D7011B
S2050007D8B368
S2050007D9DC3E
S2050007DAE534
S2050007DB0018
S2050007DCB364
S2050007DD977F
S2050007DE75A0
S2050007DF0113
S2050007E033E0
S2050007E157BB
S2050007E2E928
S2050007E30010
S2050007E423EC
S2050007E524EA
S2050007E6818C
S2050007E7010B
S2050007E89378
S2050007E98585
S2050007EA0AFF
S2050007EB0008
S2050007EC13F4
S2050007ED8581
S2050007EE0CF9
S2050007EF0004
S2050007F013F0
S2050007F11CE6
S2050007F20DF4
S2050007F301FF
S2050007F4B34C
S2050007F56995
S2050007F6F706
S2050007F700FC
S2050007F8B348
S2050007F914E6
S2050007FA7683
S2050007FB01F7
S2050007FC23D4
S2050007FD24D2
S2050007FE8174
S2050007FF02F2
S20500080023CF
S20500080128C9
S205000802618F
S20500080301EE
S20500080413DB
S2050008055C91
S2050008060CE0
S20500080701EA
S205000808EFFB
S20500080930B9
S20500080A00E8
S20500080B7E69
S20500080C9353
S20500080D05E0
S20500080E05DF
S20500080F00E3
S20500081013CF
S20500081104DD
S20500081205DB
S20500081300DF
S20500081413CB
S20500081505D8
S2050008160CD0
S20500081700DB
S205000818EFEB
S20500081930A9
S20500081A4098
S20500081B7A5D
S20500081C13C3
S20500081D0BCA
S20500081E05CF
S20500081F00D3
S205000820933F
S205000821854C
S2050008220AC6
S20500082300CF
S20500082413BB
S2050008258548
S2050008260CC0
S20500082700CB
S205000828EFDB
S2050008293099
S20500082A9038
S20500082B00C7
S20500082C13B3
S20500082D15B0
S20500082E05BF
S20500082F01C2
S205000830932F
S205000831D7EA
S20500083209B7
S20500083301BE
S205000834B30B
S205000835E7D6
S205000836A715
S20500083700BB
S2050008386357
S205000839FEBB
S20500083A6751
S20500083B01B6
S20500083CB303
S20500083D07AE
S20500083EFDB7
S20500083F00B3
S205000840139F
S20500084107AA
S205000842F4BC
S205000843FFB0
S205000844634B
S205000845ECC1
S205000846A705
S2050008471794
S2050008486347
S205000849FAAF
S20500084A6741
S20500084B1790
S20500084C1393
S20500084D04A1
S20500084EE4C0
S20500084FFFA4
S205000850B3EF
S205000851871A
S205000852A7F9
S205000853019E
S205000854336B
S2050008558B12
S2050008566735
S205000857415A
S2050008589307
S2050008598514
S20500085A0A8E
S20500085B0097
S20500085C1383
S20500085D0590
S20500085E0B89
S20500085F0093
S205000860EFA3
S2050008613061
S2050008628010
S2050008637817
S20500086493FB
S2050008650588
S2050008660587
S205000867008B
S20500086893F7
S2050008690C7D
S20500086A0583
S20500086B0087
S20500086C1373
S20500086D0580
S20500086E0C78
S20500086F0083
S205000870EF93
S2050008713051
S205000872C0C0
S205000873740B
S20500087493EB
S2050008750776
S2050008760577
S205000877007B
S20500087893E7
S20500087985F4
S20500087A0A6E
S20500087B0077
S20500087C1363
S20500087D0570
S20500087E0B69
S20500087F0073
S20500088093DF
S2050008818AE7
S2050008820769
S205000883006F
S205000884EF7F
S205000885303D
S205000886C0AC
S2050008877AF1
S2050008881357
S20500088997D2
S20500088A095F
S20500088B0166
S20500088C1353
S20500088D1550
S20500088E055F
S20500088F0162
S205000890134F
S205000891570A
S2050008920759
S205000893015E
S205000894332B
S20500089567F6
S205000896A7B5
S205000897005B
S20500089863F7
S2050008997EDB
S20500089A5701
S20500089B0156
S20500089C3323
S20500089D074E
S20500089EED67
S20500089F0053
S2050008A093BF
S2050008A187CA
S2050008A2FC54
S2050008A3FF50
S2050008A463EB
S2050008A564E9
S2050008A6A7A5
S2050008A7113A
S2050008A863E7
S2050008A972D7
S2050008AA57F1
S2050008AB1136
S2050008AC93B3
S2050008AD8CB9
S2050008AEEC58
S2050008AFFF44
S2050008B0330F
S2050008B1073A
S2050008B2A799
S2050008B3013E
S2050008B4132B
S2050008B51528
S2050008B60438
S2050008B7013A
S2050008B83703
S2050008B90336
S2050008BA0137
S2050008BB0037
S2050008BC3303
S2050008BD64D1
S2050008BE959F
S2050008BF0132
S2050008C0939F
S2050008C1072A
S2050008C2F33D
S2050008C3FF30
S2050008C433FB
S2050008C578B5
S2050008C6F438
S2050008C7002B
S2050008C8B377
S2050008C9F732
S2050008CAF434
S2050008CB0027
S2050008CC33F3
S2050008CD071E
S2050008CE57CD
S2050008CF41E2
S2050008D0938F
S2050008D15EC3
S2050008D2041C
S2050008D3011E
S2050008D4938B
S2050008D5D449
S2050008D60418
S2050008D7011A
S2050008D81307
S2050008D90514
S2050008DA0810
S2050008DB0017
S2050008DC9383
S2050008DD8590
S2050008DE070D
S2050008DF0013
S2050008E0EF23
S2050008E130E1
S2050008E2C050
S2050008E36DA2
S2050008E413FB
S2050008E50EFF
S2050008E60507
S2050008E7000B
S2050008E89377
S2050008E98584
S2050008EA0404
S2050008EB0007
S2050008EC13F3
S2050008ED0500
S2050008EE08FC
S2050008EF0003
S2050008F0EF13
S2050008F130D1
S2050008F2C040
S2050008F36C93
S2050008F413EB
S2050008F508F5
S2050008F605F7
S2050008F700FB
S2050008F89367
S2050008F98574
S2050008FA07F1
S2050008FB00F7
S2050008FC13E3
S2050008FD8570
S2050008FE0EE6
S2050008FF00F3
S205000900EF02
S20500090130C0
S205000902C02F
S2050009036B83
S205000904935A
S20500090508E4
S20500090605E6
S20500090700EA
S2050009089356
S2050009098563
S20500090A04E3
S20500090B00E6
S20500090C13D2
S20500090D855F
S20500090E0ED5
S20500090F00E2
S205000910EFF2
S20500091130B0
S205000912C01F
S2050009136A74
S205000914934A
S2050009155785
S2050009160ECD
S20500091701D9
S20500091833A6
S20500091908D0
S20500091A18BF
S20500091B01D5
S20500091CB322
S20500091D874D
S20500091E07CC
S20500091F01D1
S205000920636E
S205000921F4DC
S20500092217B8
S20500092301CD
S205000924339A
S20500092505C7
S2050009266566
S20500092700CA
S2050009289336
S205000929D6F2
S20500092A07C0
S20500092B01C5
S20500092CB312
S20500092D863E
S20500092EA61D
S20500092F00C2
S205000930635E
S205000931665A
S205000932D7E8
S20500093304BA
S205000934635A
S20500093504B8
S205000936D7E4
S20500093702B8
S20500093813A6
S20500093905B3
S20500093A04B3
S20500093B00B6
S20500093C03B2
S20500093D2490
S20500093E8132
S20500093F02B0
S205000940832E
S2050009412A86
S205000942416E
S20500094301AD
S20500094403AA
S2050009452B81
S20500094601AA
S20500094701A9
S20500094803A6
S2050009492C7C
S20500094A8126
S20500094B00A6
S20500094C8322
S20500094D2C78
S20500094E4162
S20500094F00A2
S205000950039E
S2050009512D73
S205000952019E
S205000953009E
S205000954138A
S2050009550993
S205000956009B
S205000957009A
S2050009586F2A
S205000959F0A8
S20500095A9FF8
S20500095BB7DF
S20500095C375E
S20500095D078D
S20500095E0192
S20500095F0092
S205000960137E
S2050009610789
S205000962F798
S205000963FF8F
S205000964B3DA
S205000965F795
S205000966E7A4
S205000967008A
S20500096893F6
S20500096997F1
S20500096A0780
S20500096B0185
S20500096C3352
S20500096D7E06
S20500096EEE95
S20500096F0082
S205000970334E
S205000971156B
S2050009727906
S205000973017D
S205000974B3CA
S20500097587F5
S205000976C7B4
S2050009770179
S205000978E396
S2050009797008
S20500097AF582
S20500097BFC7A
S20500097C1362
S20500097D056F
S20500097EF47F
S20500097FFF73
S2050009806F02
S205000981F080
S205000982DF90
S205000983FB73
S205000984B7B6
S2050009850765
S205000986006B
S2050009870169
S2050009886306
S2050009897AEE
S20500098AF671
S20500098B0462
S20500098C93D2
S20500098D560E
S20500098E065D
S20500098F0161
S205000990134E
S2050009910759
S205000992005F
S205000993015D
S2050009946FEE
S205000995F06C
S2050009969FBC
S205000997BF9B
S2050009981346
S205000999094F
S20500099A0057
S20500099B0056
S20500099C1342
S20500099D054F
S20500099E1043
S20500099F0052
S2050009A06FE2
S2050009A1F060
S2050009A21F30
S2050009A3B39B
S2050009A4133A
S2050009A58CC0
S2050009A60744
S2050009A7004A
S2050009A86FDA
S2050009A9F058
S2050009AA1F28
S2050009ABDF67
S2050009AC93B2
S2050009AD8CB8
S2050009AE073C
S2050009AF0042
S2050009B06FD2
S2050009B1F050
S2050009B25FE0
S2050009B3F04E
S2050009B4132A
S2050009B50933
S2050009B60734
S2050009B7003A
S2050009B86FCA
S2050009B9F048
S2050009BA1F18
S2050009BBD85E
S2050009BC1322
S2050009BD0430
S2050009BE072C
S2050009BF0032
S2050009C06FC2
S2050009C1F040
S2050009C25FD0
S2050009C3E945
S2050009C4131A
S2050009C50428
S2050009C6E447
S2050009C7FF2B
S2050009C8B376
S2050009C987A1
S2050009CA77B0
S2050009CB0125
S2050009CC6FB6
S2050009CDF034
S2050009CE5FC4
S2050009CFC45E
S2050009D0130E
S2050009D1041C
S2050009D2E43B
S2050009D3FF1F
S2050009D4B36A
S2050009D58795
S2050009D677A4
S2050009D70119
S2050009D86FAA
S2050009D9F028
S2050009DA1FF8
S2050009DBA76F
S2050009DC9382
S2050009DD56BE
S2050009DE868D
S2050009DF0111
S2050009E013FE
S2050009E10709
S2050009E2808F
S2050009E3010D
S2050009E46F9E
S2050009E5F01C
S2050009E69F6C
S2050009E7BA50
S2050009E813F6
S2050009E90107
S2050009EA0106
S2050009EBFC0A
S2050009EC23E2
S2050009ED2CD8
S2050009EE8182
S2050009EF0200
S2050009F023DE
S2050009F12ED2
S2050009F211EE
S2050009F302FC
S2050009F423DA
S2050009F528D4
S2050009F621DA
S2050009F703F7
S2050009F823D6
S2050009F926D2
S2050009FA31C6
S2050009FB03F3
S2050009FC23D2
S2050009FD24D0
S2050009FE41B2
S2050009FF03EF
S205000A00935D
S205000A0107E8
S205000A0205E9
S205000A0300ED
S205000A0413D9
S205000A0504E7
S205000A0600EA
S205000A0700E9
S205000A086385
S205000A09CC1B
S205000A0A05E1
S205000A0B1CC9
S205000A0C6381
S205000A0DDA09
S205000A0E06DC
S205000A0F00E1
S205000A1033AD
S205000A1137A8
S205000A12C01E
S205000A1300DD
S205000A14B329
S205000A1506D5
S205000A16D00A
S205000A174099
S205000A18B325
S205000A198651
S205000A1AE6F0
S205000A1B4095
S205000A1C33A1
S205000A1D06CD
S205000A1EC012
S205000A1F4091
S205000A20933D
S205000A2109C6
S205000A2206C8
S205000A2300CD
S205000A2413B9
S205000A258A41
S205000A2607C3
S205000A2700C9
S205000A2813B5
S205000A29893E
S205000A2A05C1
S205000A2B00C5
S205000A2C6361
S205000A2D962D
S205000A2E06BC
S205000A2F14AD
S205000A30239D
S205000A312A95
S205000A32912D
S205000A3302BB
S205000A342399
S205000A352299
S205000A365169
S205000A3703B6
S205000A382395
S205000A392097
S205000A3A6155
S205000A3B03B2
S205000A3C6351
S205000A3DFEB5
S205000A3EC5ED
S205000A3F1A97
S205000A403779
S205000A4107A8
S205000A4201AD
S205000A4300AD
S205000A446349
S205000A456447
S205000A46E6C4
S205000A472881
S205000A483771
S205000A4907A0
S205000A4A00A6
S205000A4B01A4
S205000A4C9311
S205000A4D069D
S205000A4E8022
S205000A4F01A0
S205000A50633D
S205000A51742B
S205000A52E6B8
S205000A53009D
S205000A549309
S205000A550695
S205000A56009A
S205000A570198
S205000A583761
S205000A590790
S205000A5A1086
S205000A5B0095
S205000A5C3361
S205000A5D553E
S205000A5ED6BC
S205000A5F0091
S205000A60137D
S205000A610788
S205000A628707
S205000A630E7F
S205000A643359
S205000A650784
S205000A66A7E3
S205000A670089
S205000A680385
S205000A694740
S205000A6A077F
S205000A6B0085
S205000A6C1371
S205000A6D057E
S205000A6E0082
S205000A6F027F
S205000A70334D
S205000A710778
S205000A72D7A7
S205000A73007D
S205000A74B3C9
S205000A750477
S205000A76E595
S205000A774039
S205000A786315
S205000A790C6B
S205000A7AE591
S205000A7B0075
S205000A7C3341
S205000A7D99DA
S205000A7E95DD
S205000A7F0071
S205000A80333D
S205000A81D798
S205000A82E787
S205000A83006D
S205000A84B3B9
S205000A851952
S205000A8696D4
S205000A870069
S205000A883335
S205000A8969FE
S205000A8A273F
S205000A8B0164
S205000A8C3331
S205000A8D9AC9
S205000A8E97CB
S205000A8F0061
S205000A9093CD
S205000A91DA85
S205000A920955
S205000A93015C
S205000A9493C9
S205000A9585D6
S205000A960A50
S205000A970059
S205000A981345
S205000A990552
S205000A9A094D
S205000A9B0055
S205000A9C1341
S205000A9D9BB8
S205000A9E0949
S205000A9F0150
S205000AA0EF61
S205000AA1301F
S205000AA280CE
S205000AA354F9
S205000AA41339
S205000AA55BF0
S205000AA60B3F
S205000AA70148
S205000AA893B5
S205000AA90542
S205000AAA0B3B
S205000AAB0045
S205000AACEF55
S205000AAD3013
S205000AAE0042
S205000AAF51F0
S205000AB093AD
S205000AB10738
S205000AB20539
S205000AB3003D
S205000AB493A9
S205000AB585B6
S205000AB60A30
S205000AB70039
S205000AB81325
S205000AB90532
S205000ABA092D
S205000ABB0035
S205000ABC1321
S205000ABD89AA
S205000ABE072B
S205000ABF0031
S205000AC0EF41
S205000AC130FF
S205000AC2002E
S205000AC357D6
S205000AC41319
S205000AC51516
S205000AC60525
S205000AC70128
S205000AC89395
S205000AC957D0
S205000ACA0A1C
S205000ACB0124
S205000ACCB371
S205000ACDE73C
S205000ACEA77B
S205000ACF0021
S205000AD063BD
S205000AD1F827
S205000AD227F7
S205000AD3011C
S205000AD4B369
S205000AD58794
S205000AD6F921
S205000AD70019
S205000AD863B5
S205000AD9E433
S205000ADA37DF
S205000ADB0114
S205000ADC63B1
S205000ADDE62D
S205000ADE27EB
S205000ADF53BE
S205000AE033DD
S205000AE18986
S205000AE227E7
S205000AE341CC
S205000AE49379
S205000AE58586
S205000AE60A00
S205000AE70009
S205000AE813F5
S205000AE90502
S205000AEA09FD
S205000AEB0005
S205000AECEF15
S205000AED30D3
S205000AEEC042
S205000AEF4FB2
S205000AF0936D
S205000AF105FA
S205000AF20BF3
S205000AF300FD
S205000AF4EF0D
S205000AF530CB
S205000AF6807A
S205000AF74CAD
S205000AF89365
S205000AF907F0
S205000AFA05F1
S205000AFB00F5
S205000AFC9361
S205000AFD856E
S205000AFE0AE8
S205000AFF00F1
S205000B0013DC
S205000B0105E9
S205000B0209E4
S205000B0300EC
S205000B0413D8
S205000B058961
S205000B0607E2
S205000B0700E8
S205000B08EFF8
S205000B0930B6
S205000B0A8065
S205000B0B5292
S205000B0C9350
S205000B0D17CB
S205000B0E0AD7
S205000B0F01DF
S205000B1013CC
S205000B1115C9
S205000B1205D8
S205000B1301DB
S205000B149348
S205000B15D703
S205000B1607D2
S205000B1701D7
S205000B18B324
S205000B19E7EF
S205000B1AA72E
S205000B1B00D4
S205000B1C6370
S205000B1DFAD8
S205000B1E27AA
S205000B1F01CF
S205000B20B31C
S205000B218747
S205000B22F9D4
S205000B2300CC
S205000B246368
S205000B25E6E4
S205000B263792
S205000B2701C7
S205000B286364
S205000B29F4D2
S205000B2A279E
S205000B2B01C3
S205000B2CB310
S205000B2D873B
S205000B2E378A
S205000B2F01BF
S205000B30B30C
S205000B318737
S205000B322796
S205000B33417B
S205000B343388
S205000B35D5E5
S205000B369722
S205000B3700B8
S205000B388334
S205000B392A8C
S205000B3A4174
S205000B3B02B2
S205000B3C8330
S205000B3D248E
S205000B3E4170
S205000B3F03AD
S205000B4003AC
S205000B412B83
S205000B4201AC
S205000B4302AA
S205000B449318
S205000B4505A5
S205000B4600A9
S205000B4700A8
S205000B486344
S205000B490A9C
S205000B4A04A1
S205000B4B00A4
S205000B4CB3F0
S205000B4D376B
S205000B4EA001
S205000B4F00A0
S205000B50B3EC
S205000B510599
S205000B52B0ED
S205000B53405C
S205000B54B3E8
S205000B558515
S205000B56F5A4
S205000B574058
S205000B583364
S205000B590591
S205000B5AA0F5
S205000B5B4054
S205000B5C8310
S205000B5D2072
S205000B5EC1D0
S205000B5F038D
S205000B60038C
S205000B61246A
S205000B62810C
S205000B630389
S205000B640388
S205000B652961
S205000B660188
S205000B670385
S205000B688304
S205000B69295D
S205000B6AC1C4
S205000B6B0282
S205000B6C0380
S205000B6D2A58
S205000B6E8100
S205000B6F027E
S205000B70136C
S205000B71017D
S205000B72017C
S205000B730478
S205000B746714
S205000B7580FA
S205000B760079
S205000B770078
S205000B781364
S205000B7988EE
S205000B7A076E
S205000B7B0074
S205000B7C1360
S205000B7D85ED
S205000B7E076A
S205000B7F0070
S205000B80E38C
S205000B81E48A
S205000B82D598
S205000B83FC70
S205000B843734
S205000B850763
S205000B860168
S205000B870068
S205000B886304
S205000B89E680
S205000B8AE67F
S205000B8B2440
S205000B8C372C
S205000B8D075B
S205000B8E0061
S205000B8F015F
S205000B90134C
S205000B910559
S205000B9280DD
S205000B93015B
S205000B9463F8
S205000B95F466
S205000B96E673
S205000B970058
S205000B981344
S205000B990551
S205000B9A0055
S205000B9B0153
S205000B9C371C
S205000B9D074B
S205000B9E1041
S205000B9F0050
S205000BA0B39C
S205000BA1D876
S205000BA2A6A7
S205000BA3004C
S205000BA41338
S205000BA50743
S205000BA687C2
S205000BA70E3A
S205000BA83314
S205000BA9073F
S205000BAA172E
S205000BAB0143
S205000BAC0340
S205000BAD4AF8
S205000BAE073A
S205000BAF0040
S205000BB0132C
S205000BB10737
S205000BB2003D
S205000BB3023A
S205000BB43308
S205000BB50A30
S205000BB6AA8F
S205000BB70038
S205000BB8B384
S205000BB9092D
S205000BBA47EE
S205000BBB41F3
S205000BBC63D0
S205000BBD141E
S205000BBE47EA
S205000BBF230D
S205000BC063CC
S205000BC1E44A
S205000BC2B677
S205000BC3002C
S205000BC463C8
S205000BC5EA40
S205000BC6C762
S205000BC70028
S205000BC833F4
S205000BC9889E
S205000BCAC75E
S205000BCB40E4
S205000BCCB370
S205000BCD869C
S205000BCED54C
S205000BCF40E0
S205000BD0B36C
S205000BD1B569
S205000BD20716
S205000BD3011B
S205000BD4B368
S205000BD58595
S205000BD6B663
S205000BD740D8
S205000BD81304
S205000BD90511
S205000BDA080D
S205000BDB0014
S205000BDC6FA4
S205000BDDF022
S205000BDEDF32
S205000BDFF61A
S205000BE033DC
S205000BE137D7
S205000BE2A06D
S205000BE3000C
S205000BE4B358
S205000BE50505
S205000BE6B059
S205000BE740C8
S205000BE8B354
S205000BE98581
S205000BEAE520
S205000BEB40C4
S205000BECB350
S205000BED07FB
S205000BEEA061
S205000BEF40C0
S205000BF013EC
S205000BF104FA
S205000BF2F00D
S205000BF3FFFD
S205000BF46F8C
S205000BF5F00A
S205000BF69F5A
S205000BF7E117
S205000BF86394
S205000BF902F4
S205000BFA06EF
S205000BFB0EE6
S205000BFC37BC
S205000BFD07EB
S205000BFE01F0
S205000BFF00F0
S205000C00638B
S205000C01727B
S205000C02E606
S205000C033EAD
S205000C049357
S205000C0536B3
S205000C0606E2
S205000C0710D7
S205000C089353
S205000C09B62F
S205000C0A16CE
S205000C0B00E3
S205000C0C934F
S205000C0D964B
S205000C0E36AA
S205000C0F00DF
S205000C1033AB
S205000C115588
S205000C12D606
S205000C1300DB
S205000C1437A3
S205000C1507D2
S205000C1610C8
S205000C1700D7
S205000C1813C3
S205000C1907CE
S205000C1A874D
S205000C1B0EC5
S205000C1C339F
S205000C1D07CA
S205000C1EA729
S205000C1F00CF
S205000C20834B
S205000C214A83
S205000C2207C5
S205000C2300CB
S205000C2413B7
S205000C2507C2
S205000C2600C8
S205000C2702C5
S205000C28B313
S205000C298A3B
S205000C2ADAEA
S205000C2B00C3
S205000C2CB30F
S205000C2D04BD
S205000C2E5769
S205000C2F417E
S205000C30635B
S205000C311AA3
S205000C325765
S205000C330DAE
S205000C3413A7
S205000C3519A0
S205000C3606B2
S205000C3701B6
S205000C38B303
S205000C398A2B
S205000C3AC5EF
S205000C3B4073
S205000C3C139F
S205000C3D5B56
S205000C3E06AA
S205000C3F01AE
S205000C40139B
S205000C415954
S205000C4209A3
S205000C4301AA
S205000C449317
S205000C4505A4
S205000C460B9D
S205000C4700A7
S205000C481393
S205000C498520
S205000C4A0A9A
S205000C4B00A3
S205000C4CEFB3
S205000C4D3071
S205000C4EC0E0
S205000C4F3966
S205000C50930B
S205000C510598
S205000C520993
S205000C53009B
S205000C54EFAB
S205000C553069
S205000C568018
S205000C573661
S205000C589303
S205000C59078E
S205000C5A058F
S205000C5B0093
S205000C5C93FF
S205000C5D058C
S205000C5E0B85
S205000C5F008F
S205000C60137B
S205000C618508
S205000C620A82
S205000C63008B
S205000C6493F7
S205000C658AFF
S205000C660781
S205000C670087
S205000C68EF97
S205000C693055
S205000C6A8004
S205000C6B3C47
S205000C6C136F
S205000C6D156C
S205000C6E057B
S205000C6F017E
S205000C7093EB
S205000C715726
S205000C720A72
S205000C73017A
S205000C74B3C7
S205000C75E792
S205000C76A7D1
S205000C770077
S205000C786313
S205000C79FA7B
S205000C7A571D
S205000C7B0172
S205000C7CB3BF
S205000C7D87EA
S205000C7EF977
S205000C7F006F
S205000C80630B
S205000C81E687
S205000C823735
S205000C83016A
S205000C846307
S205000C85F475
S205000C865711
S205000C870166
S205000C88B3B3
S205000C8987DE
S205000C8A372D
S205000C8B0162
S205000C8CB3AF
S205000C8D8AD7
S205000C8E5709
S205000C8F411E
S205000C9093CB
S205000C910558
S205000C920B51
S205000C93005B
S205000C941347
S205000C9585D4
S205000C960A4E
S205000C970057
S205000C98EF67
S205000C993025
S205000C9A0054
S205000C9B351E
S205000C9C93BF
S205000C9D054C
S205000C9E0947
S205000C9F004F
S205000CA0EF5F
S205000CA1301D
S205000CA2C08C
S205000CA3311A
S205000CA41337
S205000CA50940
S205000CA60543
S205000CA70047
S205000CA893B3
S205000CA90540
S205000CAA0B39
S205000CAB0043
S205000CAC132F
S205000CAD85BC
S205000CAE0A36
S205000CAF003F
S205000CB0EF4F
S205000CB1300D
S205000CB2003C
S205000CB33803
S205000CB41327
S205000CB51A1F
S205000CB60A2E
S205000CB70136
S205000CB893A3
S205000CB9171E
S205000CBA052F
S205000CBB0132
S205000CBC131F
S205000CBD5AD7
S205000CBE0A26
S205000CBF012E
S205000CC0B37B
S205000CC167C6
S205000CC2FA32
S205000CC3002B
S205000CC4E347
S205000CC5F633
S205000CC62701
S205000CC7E740
S205000CC86FB7
S205000CC9F035
S205000CCA9F85
S205000CCBE53E
S205000CCC938F
S205000CCD36EB
S205000CCE061A
S205000CCF100F
S205000CD0938B
S205000CD1B667
S205000CD21606
S205000CD3001B
S205000CD49387
S205000CD59683
S205000CD636E2
S205000CD70017
S205000CD86FA7
S205000CD9F025
S205000CDA1FF5
S205000CDBD83B
S205000CDC37DB
S205000CDD070A
S205000CDE1000
S205000CDF000F
S205000CE013FB
S205000CE10508
S205000CE2000C
S205000CE3000B
S205000CE413F7
S205000CE50702
S205000CE68781
S205000CE70EF9
S205000CE833D3
S205000CE907FE
S205000CEAA75D
S205000CEB0003
S205000CEC837F
S205000CED4AB7
S205000CEE07F9
S205000CEF00FF
S205000CF0936B
S205000CF106F7
S205000CF200FC
S205000CF300FB
S205000CF413E7
S205000CF507F2
S205000CF600F8
S205000CF702F5
S205000CF8B343
S205000CF98A6B
S205000CFADA1A
S205000CFB00F3
S205000CFCB33F
S205000CFD04ED
S205000CFE5799
S205000CFF41AE
S205000D00E30A
S205000D010AE2
S205000D025794
S205000D03F3F7
S205000D04B336
S205000D0519CF
S205000D069651
S205000D0700E6
S205000D0823C2
S205000D092CB8
S205000D0A8162
S205000D0B01E1
S205000D0C13CE
S205000D0DDB05
S205000D0E09D6
S205000D0F01DD
S205000D1033AA
S205000D11DC00
S205000D125586
S205000D1301D9
S205000D1433A6
S205000D159741
S205000D169542
S205000D1700D6
S205000D18B322
S205000D19DAFA
S205000D1A577C
S205000D1B01D1
S205000D1C933E
S205000D1D05CB
S205000D1E0BC4
S205000D1F00CE
S205000D2013BA
S205000D2105C7
S205000D220CBF
S205000D2300CA
S205000D2413B6
S205000D25992F
S205000D2609BE
S205000D2701C5
S205000D28B312
S205000D29EADA
S205000D2AEAD9
S205000D2B00C2
S205000D2C338E
S205000D2D9A26
S205000D2E9728
S205000D2F00BE
S205000D30239A
S205000D312E8E
S205000D32714A
S205000D3301B9
S205000D3413A6
S205000D35595F
S205000D3609AE
S205000D3701B5
S205000D38EFC6
S205000D393084
S205000D3A00B3
S205000D3B2B87
S205000D3C931E
S205000D3D05AB
S205000D3E09A6
S205000D3F00AE
S205000D40EFBE
S205000D41307C
S205000D42C0EB
S205000D432783
S205000D449316
S205000D450B9D
S205000D4605A2
S205000D4700A6
S205000D489312
S205000D49059F
S205000D4A0B98
S205000D4B00A2
S205000D4C138E
S205000D4D059B
S205000D4E0C93
S205000D4F009E
S205000D50EFAE
S205000D51306C
S205000D52009B
S205000D532E6C
S205000D541386
S205000D551583
S205000D560592
S205000D570195
S205000D589302
S205000D59D7BD
S205000D5A0A89
S205000D5B0191
S205000D5CB3DE
S205000D5DE7A9
S205000D5EA7E8
S205000D5F008E
S205000D60632A
S205000D61FA92
S205000D627714
S205000D630189
S205000D64B3D6
S205000D658701
S205000D66F98E
S205000D670086
S205000D686322
S205000D69E69E
S205000D6A374C
S205000D6B0181
S205000D6C631E
S205000D6DF48C
S205000D6E7708
S205000D6F017D
S205000D70B3CA
S205000D7187F5
S205000D723744
S205000D730179
S205000D74B3C6
S205000D758BED
S205000D767700
S205000D774135
S205000D7893E2
S205000D79056F
S205000D7A0B68
S205000D7B0072
S205000D7C135E
S205000D7D85EB
S205000D7E0B64
S205000D7F006E
S205000D80EF7E
S205000D81303C
S205000D8280EB
S205000D832644
S205000D8493D6
S205000D850563
S205000D86095E
S205000D870066
S205000D88EF76
S205000D893034
S205000D8A4023
S205000D8B233F
S205000D8C93CE
S205000D8D0759
S205000D8E055A
S205000D8F005E
S205000D9093CA
S205000D910557
S205000D920B50
S205000D93005A
S205000D941346
S205000D9585D3
S205000D960B4C
S205000D970056
S205000D9893C2
S205000D999ABA
S205000D9A0A49
S205000D9B0151
S205000D9C93BE
S205000D9D8BC5
S205000D9E0748
S205000D9F004E
S205000DA0EF5E
S205000DA1301C
S205000DA2004B
S205000DA32921
S205000DA41336
S205000DA51533
S205000DA60542
S205000DA70145
S205000DA893B2
S205000DA9DA6A
S205000DAA0A39
S205000DAB0141
S205000DACB38E
S205000DADEA56
S205000DAEAA95
S205000DAF003E
S205000DB063DA
S205000DB1FA42
S205000DB27AC1
S205000DB30139
S205000DB4B386
S205000DB58AAE
S205000DB659DE
S205000DB70135
S205000DB863D2
S205000DB9E64E
S205000DBA3AF9
S205000DBB0131
S205000DBC63CE
S205000DBDF43C
S205000DBE7AB5
S205000DBF012D
S205000DC0B37A
S205000DC18AA2
S205000DC23AF1
S205000DC30129
S205000DC4B376
S205000DC58A9E
S205000DC67AAD
S205000DC741E5
S205000DC80322
S205000DC92CF8
S205000DCA81A2
S205000DCB0121
S205000DCC839E
S205000DCD2BF5
S205000DCEC15E
S205000DCF011D
S205000DD06FAE
S205000DD1F02C
S205000DD25FBC
S205000DD3E733
S205000DD41306
S205000DD5B563
S205000DD60611
S205000DD71006
S205000DD81302
S205000DD935DF
S205000DDA15FE
S205000DDB0012
S205000DDC13FE
S205000DDD15FB
S205000DDE35DA
S205000DDF000E
S205000DE06F9E
S205000DE1F01C
S205000DE2DF2C
S205000DE3DB2F
S205000DE423E6
S205000DE522E6
S205000DE651B6
S205000DE70303
S205000DE8B352
S205000DE9966E
S205000DEA36CD
S205000DEB0101
S205000DECB34E
S205000DED5AA6
S205000DEE46B9
S205000DEF01FD
S205000DF0B34A
S205000DF1EA12
S205000DF2DA21
S205000DF300FA
S205000DF423D6
S205000DF52ECA
S205000DF67186
S205000DF701F5
S205000DF823D2
S205000DF926CE
S205000DFAB142
S205000DFB01F1
S205000DFC935E
S205000DFDDB15
S205000DFE0AE5
S205000DFF01ED
S205000E00B339
S205000E01DD0E
S205000E0245A5
S205000E0301E8
S205000E0433B5
S205000E059750
S205000E0635B1
S205000E0701E4
S205000E08B331
S205000E09D60D
S205000E0A479B
S205000E0B01E0
S205000E0C23BD
S205000E0D28B7
S205000E0EA13D
S205000E0F01DC
S205000E109349
S205000E118556
S205000E120BCF
S205000E1300D9
S205000E1413C5
S205000E158552
S205000E160DC9
S205000E1700D5
S205000E1813C1
S205000E199D36
S205000E1A0AC8
S205000E1B01D0
S205000E1C339D
S205000E1D19B6
S205000E1E3698
S205000E1F01CC
S205000E2023A9
S205000E212AA1
S205000E229139
S205000E2302C7
S205000E2423A5
S205000E2520A7
S205000E266165
S205000E2703C2
S205000E28B311
S205000E29942F
S205000E2A378B
S205000E2B01C0
S205000E2C338D
S205000E2DEBD4
S205000E2EE6D8
S205000E2F00BD
S205000E302399
S205000E312C8F
S205000E328139
S205000E3301B8
S205000E342395
S205000E352A8D
S205000E369125
S205000E3701B4
S205000E3813A1
S205000E395D56
S205000E3A0DA5
S205000E3B01B0
S205000E3CEFC1
S205000E3D307F
S205000E3EC0EE
S205000E3F1A93
S205000E409319
S205000E4105A6
S205000E4205A5
S205000E4300A9
S205000E441395
S205000E450C9B
S205000E4605A1
S205000E4700A5
S205000E481391
S205000E49059E
S205000E4A0D95
S205000E4B00A1
S205000E4CEFB1
S205000E4D306F
S205000E4E009E
S205000E4F1786
S205000E509309
S205000E510C8F
S205000E520595
S205000E530099
S205000E549305
S205000E558512
S205000E560B8B
S205000E570095
S205000E581381
S205000E59850E
S205000E5A0D85
S205000E5B0091
S205000E5CEFA1
S205000E5D305F
S205000E5E404E
S205000E5F1D70
S205000E601379
S205000E611576
S205000E620585
S205000E630188
S205000E6493F5
S205000E655730
S205000E660B7B
S205000E670184
S205000E68B3D1
S205000E69E79C
S205000E6AA7DB
S205000E6B0081
S205000E6C631D
S205000E6DFE81
S205000E6E97E7
S205000E6F017C
S205000E70B3C9
S205000E7187F4
S205000E72FA80
S205000E730079
S205000E741365
S205000E750770
S205000E76FC7A
S205000E77FF76
S205000E786311
S205000E79E48F
S205000E7A571B
S205000E7B1958
S205000E7C630D
S205000E7DF27D
S205000E7E97D7
S205000E7F1954
S205000E801359
S205000E810C5F
S205000E82EC7E
S205000E83FF6A
S205000E84B3B5
S205000E8587E0
S205000E86570F
S205000E870164
S205000E88B3B1
S205000E898CD7
S205000E8A97CB
S205000E8B4120
S205000E8C93CD
S205000E8D85DA
S205000E8E0B53
S205000E8F005D
S205000E901349
S205000E9185D6
S205000E920C4E
S205000E930059
S205000E94EF69
S205000E953027
S205000E964016
S205000E971540
S205000E9893C1
S205000E99054E
S205000E9A054D
S205000E9B0051
S205000E9C93BD
S205000E9D0D42
S205000E9E0549
S205000E9F004D
S205000EA01339
S205000EA10546
S205000EA20D3D
S205000EA30049
S205000EA4EF59
S205000EA53017
S205000EA680C6
S205000EA71134
S205000EA893B1
S205000EA9073C
S205000EAA053D
S205000EAB0041
S205000EAC93AD
S205000EAD85BA
S205000EAE0B33
S205000EAF003D
S205000EB01329
S205000EB185B6
S205000EB20C2E
S205000EB30039
S205000EB493A5
S205000EB58BAC
S205000EB6072F
S205000EB70035
S205000EB8EF45
S205000EB93003
S205000EBA80B2
S205000EBB171A
S205000EBC939D
S205000EBD151A
S205000EBE0B23
S205000EBF012C
S205000EC01319
S205000EC11516
S205000EC20525
S205000EC30128
S205000EC49395
S205000EC5D552
S205000EC60521
S205000EC70124
S205000EC8B371
S205000EC9E53E
S205000ECAA57D
S205000ECB0021
S205000ECC63BD
S205000ECDFE21
S205000ECE75A9
S205000ECF011C
S205000ED0B369
S205000ED18596
S205000ED2BA60
S205000ED30019
S205000ED49385
S205000ED58790
S205000ED6FD19
S205000ED7FF16
S205000ED863B1
S205000ED9E033
S205000EDA55BD
S205000EDB13FE
S205000EDC63AD
S205000EDDFE11
S205000EDE7599
S205000EDF11FC
S205000EE09379
S205000EE18D7E
S205000EE2ED1D
S205000EE3FF0A
S205000EE4B355
S205000EE58582
S205000EE655B1
S205000EE70104
S205000EE813F1
S205000EE917EC
S205000EEA0CF6
S205000EEB0100
S205000EEC37C9
S205000EED0EF1
S205000EEE01FD
S205000EEF00FD
S205000EF033C9
S205000EF16794
S205000EF2B743
S205000EF301F8
S205000EF413E5
S205000EF503F4
S205000EF6FEF8
S205000EF7FFF6
S205000EF8B341
S205000EF9777C
S205000EFA678B
S205000EFB00F1
S205000EFC33BD
S205000EFD737C
S205000EFE6985
S205000EFF00ED
S205000F0033B8
S205000F018862
S205000F027574
S205000F0341A7
S205000F0413D4
S205000F05578F
S205000F0607DE
S205000F0701E3
S205000F089350
S205000F095E84
S205000F0A09D8
S205000F0B01DF
S205000F0C13CC
S205000F0D8559
S205000F0E07D6
S205000F0F00DC
S205000F109348
S205000F1105D5
S205000F1203D6
S205000F1300D8
S205000F14EFE8
S205000F1530A6
S205000F168055
S205000F170ACA
S205000F189340
S205000F1908CA
S205000F1A05CC
S205000F1B00D0
S205000F1C933C
S205000F1D8549
S205000F1E0EBF
S205000F1F00CC
S205000F2013B8
S205000F218545
S205000F2207C2
S205000F2300C8
S205000F24EFD8
S205000F253096
S205000F268045
S205000F2709BB
S205000F289330
S205000F2907BB
S205000F2A05BC
S205000F2B00C0
S205000F2C932C
S205000F2D05B9
S205000F2E03BA
S205000F2F00BC
S205000F3013A8
S205000F3105B5
S205000F3207B2
S205000F3300B8
S205000F34EFC8
S205000F353086
S205000F368035
S205000F3708AC
S205000F3813A0
S205000F3903AF
S205000F3A05AC
S205000F3B00B0
S205000F3C931C
S205000F3D8529
S205000F3E0E9F
S205000F3F00AC
S205000F401398
S205000F4105A5
S205000F4207A2
S205000F4300A8
S205000F44EFB8
S205000F453076
S205000F468025
S205000F47079D
S205000F48B3F0
S205000F49871B
S205000F4A673A
S205000F4B00A0
S205000F4C138C
S205000F4DD7C7
S205000F4E0895
S205000F4F019B
S205000F50B3E8
S205000F518713
S205000F52E7B2
S205000F530098
S205000F546334
S205000F55F4A2
S205000F56672E
S205000F570094
S205000F583360
S205000F59058D
S205000F5AC5CC
S205000F5B018F
S205000F5CB7D8
S205000F5D0688
S205000F5E018C
S205000F5F008C
S205000F6093F8
S205000F618604
S205000F62F693
S205000F63FF89
S205000F641374
S205000F65D7AF
S205000F66077E
S205000F670183
S205000F68B3D0
S205000F69F78B
S205000F6AD7AA
S205000F6B0080
S205000F6C93EC
S205000F6D97E7
S205000F6E0776
S205000F6F017B
S205000F70B3C8
S205000F71F882
S205000F72D8A1
S205000F730078
S205000F743344
S205000F75076F
S205000F76A7CE
S205000F770074
S205000F78B3C0
S205000F7987EB
S205000F7A175A
S205000F7B016F
S205000F7C630C
S205000F7D6806
S205000F7EE885
S205000F7F0468
S205000F806308
S205000F810466
S205000F82E881
S205000F830464
S205000F84B3B4
S205000F8587DF
S205000F86F471
S205000F874024
S205000F88B3B0
S205000F89B4AE
S205000F8AF46D
S205000F8B0060
S205000F8CB3AC
S205000F8D0559
S205000F8EE875
S205000F8F401C
S205000F90B3A8
S205000F9185D5
S205000F9295C4
S205000F934018
S205000F943324
S205000F959ABC
S205000F964510
S205000F970153
S205000F98B3A0
S205000F99D77B
S205000F9A371A
S205000F9B014F
S205000F9C83CC
S205000F9D242A
S205000F9E410C
S205000F9F0349
S205000FA083C8
S205000FA12A20
S205000FA24108
S205000FA30246
S205000FA40344
S205000FA52B1B
S205000FA60144
S205000FA70242
S205000FA883C0
S205000FA92B17
S205000FAAC180
S205000FAB013F
S205000FAC033C
S205000FAD2C12
S205000FAE81BC
S205000FAF013B
S205000FB083B8
S205000FB12C0E
S205000FB241F8
S205000FB30137
S205000FB40334
S205000FB52D09
S205000FB60134
S205000FB70133
S205000FB883B0
S205000FB92D05
S205000FBAC170
S205000FBB0030
S205000FBC33FC
S205000FBD65C9
S205000FBEFA33
S205000FBF002C
S205000FC0B378
S205000FC1D555
S205000FC235F4
S205000FC30127
S205000FC46FB8
S205000FC5F036
S205000FC65FC6
S205000FC7B86C
S205000FC8E340
S205000FC9FE24
S205000FCAF42D
S205000FCBFA26
S205000FCC33EC
S205000FCD8698
S205000FCE27F6
S205000FCF41DB
S205000FD0B368
S205000FD1B763
S205000FD2C752
S205000FD30018
S205000FD4B364
S205000FD58A8C
S205000FD657BE
S205000FD70113
S205000FD833E0
S205000FD9070B
S205000FDA57BA
S205000FDB41CF
S205000FDC937C
S205000FDD0707
S205000FDE0607
S205000FDF000C
S205000FE06F9C
S205000FE1F01A
S205000FE25FAA
S205000FE3FA0E
S205000FE437D0
S205000FE507FF
S205000FE60005
S205000FE70103
S205000FE863A0
S205000FE9748E
S205000FEAE61B
S205000FEB02FE
S205000FEC13EC
S205000FED55A9
S205000FEE06F7
S205000FEF01FB
S205000FF09368
S205000FF106F4
S205000FF200F9
S205000FF301F7
S205000FF46F88
S205000FF5F006
S205000FF61FD6
S205000FF7C232
S205000FF89360
S205000FF98D65
S205000FFA07EA
S205000FFB00F0
S205000FFC6F80
S205000FFDF0FE
S205000FFEDF0E
S205000FFFEEFE
S20500100013D7
S2050010010CDD
S20500100207E1
S20500100300E7
S2050010046F77
S205001005F0F5
S2050010065F85
S205001007E8FB
S205001008B32F
S205001009875A
S20500100A37A9
S20500100B01DE
S20500100C6F6F
S20500100DF0ED
S20500100E5F7D
S20500100FAD2E
S20500101013C7
S2050010115584
S2050010128652
S20500101301D6
S2050010149343
S20500101506CF
S2050010168054
S20500101701D2
S2050010186F63
S205001019F0E1
S20500101ADFF1
S20500101BBF10
S20500101CB717
S20500101D07C6
S20500101E10BC
S20500101F00CB
S20500102013B7
S20500102101C8
S20500102201C7
S205001023FEC9
S2050010249333
S2050010258E37
S205001026F7CD
S205001027FFC4
S205001028338F
S205001029F8C9
S20500102ABE02
S20500102B00BF
S20500102CB30B
S20500102DF7C6
S20500102EDEDE
S20500102F00BB
S20500103013A7
S205001031D3E6
S2050010324672
S20500103301B6
S2050010342393
S205001035288D
S2050010362193
S20500103701B2
S205001038139F
S205001039D9D8
S20500103A456B
S20500103B01AE
S20500103C931B
S20500103D9716
S20500103E3775
S20500103F00AB
S2050010402387
S2050010412C7D
S2050010428127
S20500104300A7
S2050010441393
S205001045188D
S205001046386C
S20500104700A3
S205001048138F
S205001049D4CD
S20500104AF5AB
S20500104B019E
S20500104C138B
S20500104D5746
S20500104ED5C7
S20500104F019A
S2050010509307
S2050010515841
S205001052D6C2
S2050010530196
S2050010541383
S205001055791C
S205001056F99B
S2050010577F14
S205001058137F
S205001059731E
S20500105AF39D
S20500105B7F10
S20500105C236B
S20500105D2E5F
S20500105E117B
S20500105F008B
S2050010602367
S2050010612A5F
S20500106291F7
S2050010630087
S2050010642363
S205001065265F
S2050010663153
S2050010670182
S20500106893EF
S205001069D6AB
S20500106AF68A
S20500106B017E
S20500106CB3CB
S20500106DE895
S20500106EF884
S20500106F007B
S2050010703347
S2050010716712
S2050010720771
S2050010730176
S20500107493E3
S2050010751560
S205001076353F
S2050010770073
S205001078135F
S2050010791F52
S20500107A363A
S20500107B006F
S20500107CB3BB
S20500107D0766
S20500107E6903
S20500107F402B
S2050010806307
S2050010810465
S205001082D494
S2050010831E49
S2050010846303
S2050010855213
S205001086F074
S205001087164D
S20500108863FF
S205001089065B
S20500108A035D
S20500108B2837
S20500108C93CB
S20500108D0657
S20500108EF06C
S20500108F7FDC
S20500109063F7
S2050010910653
S205001092D97F
S2050010934215
S20500109493C3
S205001095064F
S20500109680D4
S2050010970350
S205001098133F
S205001099064B
S20500109A1040
S20500109B004F
S20500109C63EB
S20500109DCE7F
S20500109EF656
S20500109F0249
S2050010A0B793
S2050010A10643
S2050010A280C8
S2050010A30047
S2050010A4B393
S2050010A5E85D
S2050010A6D86C
S2050010A70043
